1
 8080 MACRO ASSEMBLER, VER 3.0        ERRORS = 0
+                                                      16:31  07/23/2016
+                                                                                      PAGE 1


                   ;******************************************************************
                   ;       PROM BASED BOOT ROUTINE FOR TARBELL SINGLE DENSITY CP/M
                   ;******************************************************************
                   ;
                   ;       THIS PROGRAM IS DESIGNED TO BOOT SECTOR 1 OF TRACK 0
                   ;       ON A TARBELL DISK USING THE TARBELL SINGLE DENSITY
                   ;       DISK CONTROLLER BOARD. TRACK 0 IS FORMATTED SINGLE
                   ;       DENSITY SO THE CPU CAN DO THE DATA TRANSFER. THE BOOT
                   ;       ROUTINE LOADS A PROGRAM FROM DISK INTO MEMORY AND THEN
                   ;       JUMPS TO THAT ROUTINE. THE PROGRAM LOADED STARTS AT
                   ;       MEMORY ADDRESS 0000H.
                   ;               THE PART OF THIS PROGRAM THAT ACTUALLY DOES THE
                   ;       THE BOOT OPERATION IS MOVED FROM A DATA AREA IN THE 1702A
                   ;       TURNKEY PROMS AT ADDRESS 0FE00H TO BE EXECUTED FROM WITHIN
                   ;       CPU RAM AT ADDRESS 01000H. THIS IS NECESSARY DUE TO THE
                   ;       EXTENDED WAITSTATE TIME AFFORDED BY THE TURNKEY MODULE
                   ;       WHICH COULD RESULT IN DATA LOST ERRORS AT THE DISK CONTROLLER
                   ;       BOARD. THE FIRST PROM ONLY CONTAINS A BLOCK MOVE ROUTINE
                   ;       TO TRANSFER THE DATA TO THE EXECUTION AREA AT 01000H.
                   ;
                   ;               MICHAEL J. KARAS
                   ;               MICRO RESOURCES
                   ; THESE DAYS MIKE CAN BE REACHED AT MKARAS@CAROUSEL-DESIGN.COM (MARCH 23, 2009)
                   ;
                   ; MODIFIED SO THAT THE BOOT CODE CAN BE MOVED TO RAM @ 1000H
                   ; UDO MUNK, AUGUST 2016
                   ;
                   ;******************************************************************
                   ;
   1000            RUNLOC  EQU    1000H            ;RELOCATE LOADER HERE
                   ;
                   ;MAKE A BLOCK MOVE ROUTINE TO SEND EXECUTABLE CODE INTO
                   ;SYSTEM RAM AT 1000H

   FE00                    ORG     0FE00H          ;PUT THE MOVE ROUTINE HERE

   FE00   F3               DI                      ;NO INTERRUPTS
   FE01   2117FE           LXI     H,RCODE         ;POINT TO BLOCK TO BE MOVED
   FE04   018001           LXI     B,0180H         ;SET COUNT FOR ONE AND A HALF 1702'S
   FE07   110010           LXI     D,RUNLOC        ;POINT TO DESTINATION OF MOVE
   FE0A             MOVE:
   FE0A   7E               MOV     A,M             ;GET A BYTE OF CODE FROM PROM
   FE0B   12               STAX    D               ;STORE IT INTO RAM
   FE0C   23               INX     H               ;INCREMENT PROM POINTER
   FE0D   13               INX     D               ;INCREMENT RAM POINTER
   FE0E   0B               DCX     B               ;DECREMENT BYTE COUNT
   FE0F   79               MOV     A,C             ;CHECK IF DONE
   FE10   B0               ORA     B
   FE11   C20AFE           JNZ     MOVE            ;IF NOT DONE GO DO IT AGAIN
                   ;
   FE14   C30010           JMP     RUNLOC          ;TRANSFER CONTROL TO ROUTINE
1
 8080 MACRO ASSEMBLER, VER 3.0        ERRORS = 0
+                                                      16:31  07/23/2016
+                                                                                      PAGE 2


                                                   ;JUST MOVED TO RAM
                   ;
                   ;
                   ;BASE THIS ROUTINE INTO SYSTEM RAM AT 1000H
                   ;
                   ;       ORG     01000H
                   ;
   FE17   F3       RCODE:  DI                      ;DISABLE INTERRUPTS
                   ;
   EE17            OFFSET  EQU     RCODE-RUNLOC    ;CALCULATE CODE ADDRESS OFFSET FOR RELOCATION
                   ;
   FE18   315611           LXI     SP,STACK-OFFSET ;SET THE STACK DUMMY?
   FE1B   C34210           JMP     INIT-OFFSET     ;GO INITIALIZE THIS BUGGER
                   ;
                   ;
                   ;SYSTEM EQUATES FOR TARBELL CONTROLLER
                   ;
   00FC            DWAIT   EQU     0FCH            ;WAIT FOR DISK PORT
   00F8            DCOM    EQU     0F8H            ;DISK COMMAND PORT
   00FB            DDATA   EQU     0FBH            ;DISK DATA PORT
   00F8            DSTAT   EQU     0F8H            ;DISK STATUS PORT
   00FA            DSEC    EQU     0FAH            ;DISK SECTOR PORT
   00F9            DTRK    EQU     0F9H            ;DISK TRACK PORT
   00FC            DSEL    EQU     0FCH            ;DISK SELECT PORT
                   ;
                   ;
                   ;SYSTEM VARIABLES AND ADDRESS POINTERS
                   ;
   007D            SBOOT   EQU     007DH           ;SINGLE DENSITY BOOT ENTRY
   008C            RDCMD   EQU     008CH           ;READ COMMAND FOR 1791 CONTROLLER
                   ;
                   ;
                   ;DEFINE SI/O RS-232 CONSOLE I/O PARAMETERS
                   ;
   0010            CCTRL   EQU     010H            ;CONSOLE COMMAND/STATUS PORT
   0011            CDATA   EQU     011H            ;CONSOLE DATA PORT
   0001            CRRDY   EQU     001H            ;RECEIVER READY BIT
   0002            CTRDY   EQU     002H            ;TRANSMITTER READY BIT
                   ;
                   ;
                   ;COLD BOOT LOADER CONSOLE I/O INTERFACE ROUTINES
                   ;
                   ;
                   ;       CONSOLE  OUTPUT ROUTINE
                   ;
   FE1E            CO:
   FE1E   DB10             IN      CCTRL
   FE20   E602             ANI     CTRDY
   FE22   CA0710           JZ      CO-OFFSET
   FE25   79               MOV     A,C
   FE26   D311             OUT     CDATA
1
 8080 MACRO ASSEMBLER, VER 3.0        ERRORS = 0
+                                                      16:31  07/23/2016
+                                                                                      PAGE 3


   FE28   C9               RET
                   ;
                   ;       BYTE PRINT CONVERSION ROUTINE
                   ;
   FE29            BYTEO:
   FE29   F5               PUSH    PSW
   FE2A   CD2210           CALL    BYTO1-OFFSET
   FE2D   4F               MOV     C,A
   FE2E   CD0710           CALL    CO-OFFSET
   FE31   F1               POP     PSW
   FE32   CD2610           CALL    BYTO2-OFFSET
   FE35   4F               MOV     C,A
   FE36   C30710           JMP     CO-OFFSET
                   ;
                   ;
                   ;
   FE39            BYTO1:
   FE39   0F               RRC
   FE3A   0F               RRC
   FE3B   0F               RRC
   FE3C   0F               RRC
   FE3D            BYTO2:
   FE3D   E60F             ANI     0FH
   FE3F   FE0A             CPI     0AH
   FE41   FA2F10           JM      BYTO3-OFFSET
   FE44   C607             ADI     7
   FE46            BYTO3:
   FE46   C630             ADI     30H
   FE48   C9               RET
                   ;
                   ;       MESSAGE PRINTING ROUTINE
                   ;
   FE49            MSG:
   FE49   F5               PUSH    PSW             ;FOLLOWING OUTPUTS MESSAGES
   FE4A   C5               PUSH    B               ;  TO CONSOLE
   FE4B   46               MOV     B,M
   FE4C   23               INX     H
   FE4D            MSGA:
   FE4D   4E               MOV     C,M
   FE4E   CD0710           CALL    CO-OFFSET
   FE51   23               INX     H
   FE52   05               DCR     B
   FE53   C23610           JNZ     MSGA-OFFSET
   FE56   C1               POP     B
   FE57   F1               POP     PSW
   FE58   C9               RET
                   ;
                   ;
                   ;INITIALIZE
                   ;
   FE59            INIT:
1
 8080 MACRO ASSEMBLER, VER 3.0        ERRORS = 0
+                                                      16:31  07/23/2016
+                                                                                      PAGE 4


   FE59   21FF0F           LXI     H,00FFFH        ;DELAY SI/O INIT FOR
                                                   ; MESSAGE IN PROGRESS
   FE5C            LOOP:
   FE5C   2B               DCX     H
   FE5D   7C               MOV     A,H
   FE5E   B5               ORA     L
   FE5F   C24510           JNZ     LOOP-OFFSET
   FE62   3E03             MVI     A,003H          ;INITIALIZE SI/O WITH RESET
   FE64   D310             OUT     CCTRL
   FE66   3E11             MVI     A,011H          ;INITIALIZE SIO WITH 16X,8 BITS, NO PAR
                                                   ;2 STOP BITS
   FE68   D310             OUT     CCTRL
                   ;
                   ;
                   ;START OF COLD BOOT LOADER CODE
                   ;
   FE6A            START:
   FE6A   21C510           LXI     H,CBMSG-OFFSET  ;OUTPUT "CP/M COLD BOOT" TO THE CONSOLE
   FE6D   CD3210           CALL    MSG-OFFSET
   FE70   3EF2             MVI     A,0F2H          ;SELECT DISK A: AT SINGLE DENSITY
   FE72   D3FC             OUT     DSEL
   FE74   3ED0             MVI     A,0D0H          ;CLEAR ANY PENDING COMMAND
   FE76   D3F8             OUT     DCOM
   FE78   00               NOP                     ;ALLOW TIME FOR COMMAND SETTLING
   FE79   00               NOP
   FE7A   00               NOP
   FE7B   00               NOP
   FE7C            HOME:
   FE7C   DBF8             IN      DSTAT           ;GET STATUS
   FE7E   0F               RRC
   FE7F   DA6510           JC      HOME-OFFSET     ;WAIT FOR NOT BUSY COMPLETION
   FE82   3E02             MVI     A,002H          ;ISSUE RESTORE CMND (10 MSEC. STEP RATE)
   FE84   D3F8             OUT     DCOM
   FE86   00               NOP                     ;ALLOW TIME FOR COMMAND SETTLING
   FE87   00               NOP
   FE88   00               NOP
   FE89   00               NOP
   FE8A   DBFC             IN      DWAIT           ;WAIT FOR COMPLETION
   FE8C   B7               ORA     A               ;SET FLAGS FOR ERROR ON "DRQ",NOT "INTRQ"
   FE8D   FAA810           JM      DRQER-OFFSET
   FE90   DBF8             IN      DSTAT           ;GET DISK STATUS
   FE92   E604             ANI     004H            ;MASK FOR TRACK 00 STATUS BIT
   FE94   CAAF10           JZ      TK0ER-OFFSET
   FE97   AF               XRA     A               ;ZERO ACCUMULATOR
   FE98   6F               MOV     L,A             ;SETUP MEMORY LOAD ADDRESS 0000H
   FE99   67               MOV     H,A
   FE9A   3C               INR     A               ;SETUP FOR SECTOR 01
   FE9B   D3FA             OUT     DSEC
   FE9D   3E8C             MVI     A,RDCMD         ;SETUP READ COMMAND
   FE9F   D3F8             OUT     DCOM
   FEA1   00               NOP                     ;ALLOW TIME FOR COMMAND SETTLING
1
 8080 MACRO ASSEMBLER, VER 3.0        ERRORS = 0
+                                                      16:31  07/23/2016
+                                                                                      PAGE 5


   FEA2   00               NOP
   FEA3   00               NOP
   FEA4   00               NOP
   FEA5            RLOOP:
   FEA5   DBFC             IN      DWAIT           ;WAIT FOR DISK CONTROLLER
   FEA7   B7               ORA     A               ;SET FLAGS
   FEA8   F29B10           JP      RDONE-OFFSET    ;ARE WE DONE YET
   FEAB   DBFB             IN      DDATA           ;GET DATA FROM DISK
   FEAD   77               MOV     M,A             ;MOVE IT INTO MEMORY
   FEAE   23               INX     H               ;INCREMENT MEMORY POINTER
   FEAF   C38E10           JMP     RLOOP-OFFSET    ;GO GET NEXT BYTE
   FEB2            RDONE:
   FEB2   DBF8             IN      DSTAT           ;GET DISK READ STATUS
   FEB4   B7               ORA     A               ;CHECK FOR ERRORS
   FEB5   CA7D00           JZ      SBOOT           ;NO ERRORS?
                                                   ;THEN GO BOOT SINGLE DENSITY CP/M
   FEB8   F5               PUSH    PSW             ;OOPS...GOT AN ERROR,SAVE STATUS
   FEB9   21D610           LXI     H,LEMSG-OFFSET  ;OUTPUT "BOOT LOAD ERROR=" TO CONSOLE
   FEBC   C3B310           JMP     LERR-OFFSET
   FEBF   F5       DRQER:  PUSH    PSW             ;SAVE ERROR STATUS
   FEC0   21E910           LXI     H,RQMSG-OFFSET  ;OUTPUT "COMMAND COMPLETION ERROR=" TO CONSOLE
   FEC3   C3B310           JMP     LERR-OFFSET
   FEC6   F5       TK0ER:  PUSH    PSW             ;SAVE ERROR STATUS
   FEC7   210511           LXI     H,REMSG-OFFSET  ;OUTPUT "RESTORE ERROR=" TO CONSOLE
   FECA   CD3210   LERR:   CALL    MSG-OFFSET
   FECD   F1               POP     PSW             ;GET ERROR STATUS BACK
   FECE   CD1210           CALL    BYTEO-OFFSET    ;INDICATE ERROR AND DO CRLF
   FED1   0E0A             MVI     C,0AH
   FED3   CD0710           CALL    CO-OFFSET
   FED6   0E0D             MVI     C,0DH
   FED8   CD0710           CALL    CO-OFFSET
                   ;
   FEDB            HERE:
                   ;       JMP     START           ;GO TRY BOOTING AGAIN
   FEDB   76               HLT                     ;OR HALT SYSTEM
                   ;
                   ;
                   ;COLD BOOT ROUTINE MESSAGES
                   ;
                   ;
   FEDC   1043502F CBMSG:  DB      16,'CP/M COLD BOOT',0AH,0DH
   FEE0   4D20434F
   FEE4   4C442042
   FEE8   4F4F540A
   FEEC   0D
                   ;
   FEED   120D0A42 LEMSG:  DB      18,0DH,0AH,'BOOT LOAD ERROR='
   FEF1   4F4F5420
   FEF5   4C4F4144
   FEF9   20455252
   FEFD   4F523D
1
 8080 MACRO ASSEMBLER, VER 3.0        ERRORS = 0
+                                                      16:31  07/23/2016
+                                                                                      PAGE 6


                   ;
   FF00   1B0D0A43 RQMSG:  DB      27,0DH,0AH,'COMMAND COMPLETION ERROR='
   FF04   4F4D4D41
   FF08   4E442043
   FF0C   4F4D504C
   FF10   4554494F
   FF14   4E204552
   FF18   524F523D
                   ;
   FF1C   100D0A52 REMSG:  DB      16,0DH,0AH,'RESTORE ERROR='
   FF20   4553544F
   FF24   52452045
   FF28   52524F52
   FF2C   3D
                   ;
   FF2D                    DS      64      ;SETUP STORAGE FOR A RAM BASED STACK
   FF6D            STACK   EQU     $
                   ;
                           END
 NO PROGRAM ERRORS
1
 8080 MACRO ASSEMBLER, VER 3.0        ERRORS = 0
+                                                      16:31  07/23/2016
+                                                                                      PAGE 7


                        SYMBOL TABLE

  * 01

  A      0007      B      0000      BYTEO  FE29      BYTO1  FE39
  BYTO2  FE3D      BYTO3  FE46      C      0001      CBMSG  FEDC
  CCTRL  0010      CDATA  0011      CO     FE1E      CRRDY  0001 *
  CTRDY  0002      D      0002      DCOM   00F8      DDATA  00FB
  DRQER  FEBF      DSEC   00FA      DSEL   00FC      DSTAT  00F8
  DTRK   00F9 *    DWAIT  00FC      E      0003      H      0004
  HERE   FEDB *    HOME   FE7C      INIT   FE59      L      0005
  LEMSG  FEED      LERR   FECA      LOOP   FE5C      M      0006
  MOVE   FE0A      MSG    FE49      MSGA   FE4D      OFFSE  EE17
  PSW    0006      RCODE  FE17      RDCMD  008C      RDONE  FEB2
  REMSG  FF1C      RLOOP  FEA5      RQMSG  FF00      RUNLO  1000
  SBOOT  007D      SP     0006      STACK  FF6D      START  FE6A *
  TK0ER  FEC6

