1
 8080 MACRO ASSEMBLER, VER 3.0        ERRORS = 0
+                                                      13:28  11/10/2019
+                                                                                      PAGE 1


                   ;*************************************************************
                   ;
                   ;                 TINY BASIC FOR INTEL 8080
                   ;                       VERSION 2.0
                   ;                     BY LI-CHEN WANG
                   ;                  MODIFIED AND TRANSLATED
                   ;                    TO INTEL MNEMONICS
                   ;                     BY ROGER RAUSKOLB
                   ;                      10 OCTOBER,1976
                   ;                        @COPYLEFT
                   ;                   ALL WRONGS RESERVED
                   ;
                   ;                 ADDED FIX FOR BUGGY CHGSGN
                   ;                 UDO MUNK, 10 DECEMBER 2019
                   ;*************************************************************
                   ;
                   ; *** ZERO PAGE SUBROUTINES ***
                   ;
                   ; THE 8080 INSTRUCTION SET LETS YOU HAVE 8 ROUTINES IN LOW
                   ; MEMORY THAT MAY BE CALLED BY RST N, N BEING 0 THROUGH 7.
                   ; THIS IS A ONE BYTE INSTRUCTION AND HAS THE SAME POWER AS
                   ; THE THREE BYTE INSTRUCTION CALL LLHH.  TINY BASIC WILL
                   ; USE RST 0 AS START AND RST 1 THROUGH RST 7 FOR
                   ; THE SEVEN MOST FREQUENTLY USED SUBROUTINES.
                   ; TWO OTHER SUBROUTINES (CRLF AND TSTNUM) ARE ALSO IN THIS
                   ; SECTION.  THEY CAN BE REACHED ONLY BY 3-BYTE CALLS.
                   ;
                   DWA     MACRO WHERE
        1                  DB   (WHERE SHR 8) + 128
        1                  DB   WHERE AND 0FFH
                           ENDM
                   ;
   0000                    ORG  0H
   0000   310020   START:  LXI  SP,STACK                   ;*** COLD START ***
   0003   3EFF             MVI  A,0FFH
   0005   C34506           JMP  INIT
                   ;
   0008   E3               XTHL                            ;*** TSTC OR RST 1 ***
   0009   EF               RST  5                          ;IGNORE BLANKS AND
   000A   BE               CMP  M                          ;TEST CHARACTER
   000B   C36800           JMP  TC1                        ;REST OF THIS IS AT TC1
                   ;
   000E   3E0D     CRLF:   MVI  A,CR                       ;*** CRLF ***
                   ;
   0010   F5               PUSH PSW                        ;*** OUTC OR RST 2 ***
   0011   3A0008           LDA  OCSW                       ;PRINT CHARACTER ONLY
   0014   B7               ORA  A                          ;IF OCSW SWITCH IS ON
   0015   C36F06           JMP  OC2                        ;REST OF THIS IS AT OC2
                   ;
   0018   CD7103           CALL EXPR2                      ;*** EXPR OR RST 3 ***
   001B   E5               PUSH H                          ;EVALUATE AN EXPRESSION
1
 8080 MACRO ASSEMBLER, VER 3.0        ERRORS = 0
+                                                      13:28  11/10/2019
+                                                                                      PAGE 2


   001C   C32D03           JMP  EXPR1                      ;REST OF IT AT EXPR1
   001F   57               DB   'W'
                   ;
   0020   7C               MOV  A,H                        ;*** COMP OR RST 4 ***
   0021   BA               CMP  D                          ;COMPARE HL WITH DE
   0022   C0               RNZ                             ;RETURN CORRECT C AND
   0023   7D               MOV  A,L                        ;Z FLAGS
   0024   BB               CMP  E                          ;BUT OLD A IS LOST
   0025   C9               RET
   0026   414E             DB   'AN'
                   ;
   0028   1A       SS1:    LDAX D                          ;*** IGNBLK/RST 5 ***
   0029   FE20             CPI  20H                        ;IGNORE BLANKS
   002B   C0               RNZ                             ;IN TEXT (WHERE DE->)
   002C   13               INX  D                          ;AND RETURN THE FIRST
   002D   C32800           JMP  SS1                        ;NON-BLANK CHAR. IN A
                   ;
   0030   F1               POP  PSW                        ;*** FINISH/RST 6 ***
   0031   CDB604           CALL FIN                        ;CHECK END OF COMMAND
   0034   C3C904           JMP  QWHAT                      ;PRINT "WHAT?" IF WRONG
   0037   47               DB   'G'
                   ;
   0038   EF               RST  5                          ;*** TSTV OR RST 7 ***
   0039   D640             SUI  40H                        ;TEST VARIABLES
   003B   D8               RC                              ;C:NOT A VARIABLE
   003C   C25800           JNZ  TV1                        ;NOT "@" ARRAY
   003F   13               INX  D                          ;IT IS THE "@" ARRAY
   0040   CD1A04           CALL PARN                       ;@ SHOULD BE FOLLOWED
   0043   29               DAD  H                          ;BY (EXPR) AS ITS INDEX
   0044   DA9F00           JC   QHOW                       ;IS INDEX TOO BIG?
   0047   D5               PUSH D                          ;WILL IT OVERWRITE
   0048   EB               XCHG                            ;TEXT?
   0049   CD5904           CALL SIZE                       ;FIND SIZE OF FREE
   004C   E7               RST  4                          ;AND CHECK THAT
   004D   DAF704           JC   ASORRY                     ;IF SO, SAY "SORRY"
   0050   21001F           LXI  H,VARBGN                   ;IF NOT GET ADDRESS
   0053   CD7C04           CALL SUBDE                      ;OF @(EXPR) AND PUT IT
   0056   D1               POP  D                          ;IN HL
   0057   C9               RET                             ;C FLAG IS CLEARED
   0058   FE1B     TV1:    CPI  1BH                        ;NOT @, IS IT A TO Z?
   005A   3F               CMC                             ;IF NOT RETURN C FLAG
   005B   D8               RC
   005C   13               INX  D                          ;IF A THROUGH Z
   005D   21001F           LXI  H,VARBGN                   ;COMPUTE ADDRESS OF
   0060   07               RLC                             ;THAT VARIABLE
   0061   85               ADD  L                          ;AND RETURN IT IN HL
   0062   6F               MOV  L,A                        ;WITH C FLAG CLEARED
   0063   3E00             MVI  A,0
   0065   8C               ADC  H
   0066   67               MOV  H,A
   0067   C9               RET
1
 8080 MACRO ASSEMBLER, VER 3.0        ERRORS = 0
+                                                      13:28  11/10/2019
+                                                                                      PAGE 3


                   ;
                   ;TSTC:  XTHL                            ;*** TSTC OR RST 1 ***
                   ;       RST  5                          ;THIS IS AT LOC. 8
                   ;       CMP  M                          ;AND THEN JUMP HERE
   0068   23       TC1:    INX  H                          ;COMPARE THE BYTE THAT
   0069   CA7300           JZ   TC2                        ;FOLLOWS THE RST INST.
   006C   C5               PUSH B                          ;WITH THE TEXT (DE->)
   006D   4E               MOV  C,M                        ;IF NOT =, ADD THE 2ND
   006E   0600             MVI  B,0                        ;BYTE THAT FOLLOWS THE
   0070   09               DAD  B                          ;RST TO THE OLD PC
   0071   C1               POP  B                          ;I.E., DO A RELATIVE
   0072   1B               DCX  D                          ;JUMP IF NOT =
   0073   13       TC2:    INX  D                          ;IF =, SKIP THOSE BYTES
   0074   23               INX  H                          ;AND CONTINUE
   0075   E3               XTHL
   0076   C9               RET
                   ;
   0077   210000   TSTNUM: LXI  H,0                        ;*** TSTNUM ***
   007A   44               MOV  B,H                        ;TEST IF THE TEXT IS
   007B   EF               RST  5                          ;A NUMBER
   007C   FE30     TN1:    CPI  30H                        ;IF NOT, RETURN 0 IN
   007E   D8               RC                              ;B AND HL
   007F   FE3A             CPI  3AH                        ;IF NUMBERS, CONVERT
   0081   D0               RNC                             ;TO BINARY IN HL AND
   0082   3EF0             MVI  A,0F0H                     ;SET B TO # OF DIGITS
   0084   A4               ANA  H                          ;IF H>255, THERE IS NO
   0085   C29F00           JNZ  QHOW                       ;ROOM FOR NEXT DIGIT
   0088   04               INR  B                          ;B COUNTS # OF DIGITS
   0089   C5               PUSH B
   008A   44               MOV  B,H                        ;HL=10*HL+(NEW DIGIT)
   008B   4D               MOV  C,L
   008C   29               DAD  H                          ;WHERE 10* IS DONE BY
   008D   29               DAD  H                          ;SHIFT AND ADD
   008E   09               DAD  B
   008F   29               DAD  H
   0090   1A               LDAX D                          ;AND (DIGIT) IS FROM
   0091   13               INX  D                          ;STRIPPING THE ASCII
   0092   E60F             ANI  0FH                        ;CODE
   0094   85               ADD  L
   0095   6F               MOV  L,A
   0096   3E00             MVI  A,0
   0098   8C               ADC  H
   0099   67               MOV  H,A
   009A   C1               POP  B
   009B   1A               LDAX D                          ;DO THIS DIGIT AFTER
   009C   F27C00           JP   TN1                        ;DIGIT. S SAYS OVERFLOW
   009F   D5       QHOW:   PUSH D                          ;*** ERROR "HOW?" ***
   00A0   11A600   AHOW:   LXI  D,HOW
   00A3   C3CD04           JMP  ERROR
   00A6   484F573F HOW:    DB   'HOW?'
   00AA   0D               DB   CR
1
 8080 MACRO ASSEMBLER, VER 3.0        ERRORS = 0
+                                                      13:28  11/10/2019
+                                                                                      PAGE 4


   00AB   4F4B     OK:     DB   'OK'
   00AD   0D               DB   CR
   00AE   57484154 WHAT:   DB   'WHAT?'
   00B2   3F
   00B3   0D               DB   CR
   00B4   534F5252 SORRY:  DB   'SORRY'
   00B8   59
   00B9   0D               DB   CR
                   ;
                   ;*************************************************************
                   ;
                   ; *** MAIN ***
                   ;
                   ; THIS IS THE MAIN LOOP THAT COLLECTS THE TINY BASIC PROGRAM
                   ; AND STORES IT IN THE MEMORY.
                   ;
                   ; AT START, IT PRINTS OUT "(CR)OK(CR)", AND INITIALIZES THE
                   ; STACK AND SOME OTHER INTERNAL VARIABLES.  THEN IT PROMPTS
                   ; ">" AND READS A LINE.  IF THE LINE STARTS WITH A NON-ZERO
                   ; NUMBER, THIS NUMBER IS THE LINE NUMBER.  THE LINE NUMBER
                   ; (IN 16 BIT BINARY) AND THE REST OF THE LINE (INCLUDING CR)
                   ; IS STORED IN THE MEMORY.  IF A LINE WITH THE SAME LINE
                   ; NUMBER IS ALREADY THERE, IT IS REPLACED BY THE NEW ONE.  IF
                   ; THE REST OF THE LINE CONSISTS OF A CR ONLY, IT IS NOT STORED
                   ; AND ANY EXISTING LINE WITH THE SAME LINE NUMBER IS DELETED.
                   ;
                   ; AFTER A LINE IS INSERTED, REPLACED, OR DELETED, THE PROGRAM
                   ; LOOPS BACK AND ASKS FOR ANOTHER LINE.  THIS LOOP WILL BE
                   ; TERMINATED WHEN IT READS A LINE WITH ZERO OR NO LINE
                   ; NUMBER; AND CONTROL IS TRANSFERED TO "DIRECT".
                   ;
                   ; TINY BASIC PROGRAM SAVE AREA STARTS AT THE MEMORY LOCATION
                   ; LABELED "TXTBGN" AND ENDS AT "TXTEND".  WE ALWAYS FILL THIS
                   ; AREA STARTING AT "TXTBGN", THE UNFILLED PORTION IS POINTED
                   ; BY THE CONTENT OF A MEMORY LOCATION LABELED "TXTUNF".
                   ;
                   ; THE MEMORY LOCATION "CURRNT" POINTS TO THE LINE NUMBER
                   ; THAT IS CURRENTLY BEING INTERPRETED.  WHILE WE ARE IN
                   ; THIS LOOP OR WHILE WE ARE INTERPRETING A DIRECT COMMAND
                   ; (SEE NEXT SECTION). "CURRNT" SHOULD POINT TO A 0.
                   ;
   00BA   310020   RSTART: LXI  SP,STACK
   00BD   CD0E00   ST1:    CALL CRLF                       ;AND JUMP TO HERE
   00C0   11AB00           LXI  D,OK                       ;DE->STRING
   00C3   97               SUB  A                          ;A=0
   00C4   CD6305           CALL PRTSTG                     ;PRINT STRING UNTIL CR
   00C7   21CE00           LXI  H,ST2+1                    ;LITERAL 0
   00CA   220108           SHLD CURRNT                     ;CURRENT->LINE # = 0
   00CD   210000   ST2:    LXI  H,0
   00D0   220908           SHLD LOPVAR
   00D3   220308           SHLD STKGOS
1
 8080 MACRO ASSEMBLER, VER 3.0        ERRORS = 0
+                                                      13:28  11/10/2019
+                                                                                      PAGE 5


   00D6   3E3E     ST3:    MVI  A,3EH                      ;PROMPT '>' AND
   00D8   CDFD04           CALL GETLN                      ;READ A LINE
   00DB   D5               PUSH D                          ;DE->END OF LINE
   00DC   11371F           LXI  D,BUFFER                   ;DE->BEGINNING OF LINE
   00DF   CD7700           CALL TSTNUM                     ;TEST IF IT IS A NUMBER
   00E2   EF               RST  5
   00E3   7C               MOV  A,H                        ;HL=VALUE OF THE # OR
   00E4   B5               ORA  L                          ;0 IF NO # WAS FOUND
   00E5   C1               POP  B                          ;BC->END OF LINE
   00E6   CA3B07           JZ   DIRECT
   00E9   1B               DCX  D                          ;BACKUP DE AND SAVE
   00EA   7C               MOV  A,H                        ;VALUE OF LINE # THERE
   00EB   12               STAX D
   00EC   1B               DCX  D
   00ED   7D               MOV  A,L
   00EE   12               STAX D
   00EF   C5               PUSH B                          ;BC,DE->BEGIN, END
   00F0   D5               PUSH D
   00F1   79               MOV  A,C
   00F2   93               SUB  E
   00F3   F5               PUSH PSW                        ;A=# OF BYTES IN LINE
   00F4   CD3B05           CALL FNDLN                      ;FIND THIS LINE IN SAVE
   00F7   D5               PUSH D                          ;AREA, DE->SAVE AREA
   00F8   C20B01           JNZ  ST4                        ;NZ:NOT FOUND, INSERT
   00FB   D5               PUSH D                          ;Z:FOUND, DELETE IT
   00FC   CD5705           CALL FNDNXT                     ;FIND NEXT LINE
                                                           ;DE->NEXT LINE
   00FF   C1               POP  B                          ;BC->LINE TO BE DELETED
   0100   2A1508           LHLD TXTUNF                     ;HL->UNFILLED SAVE AREA
   0103   CDE805           CALL MVUP                       ;MOVE UP TO DELETE
   0106   60               MOV  H,B                        ;TXTUNF->UNFILLED AREA
   0107   69               MOV  L,C
   0108   221508           SHLD TXTUNF                     ;UPDATE
   010B   C1       ST4:    POP  B                          ;GET READY TO INSERT
   010C   2A1508           LHLD TXTUNF                     ;BUT FIRST CHECK IF
   010F   F1               POP  PSW                        ;THE LENGTH OF NEW LINE
   0110   E5               PUSH H                          ;IS 3 (LINE # AND CR)
   0111   FE03             CPI  3                          ;THEN DO NOT INSERT
   0113   CABA00           JZ   RSTART                     ;MUST CLEAR THE STACK
   0116   85               ADD  L                          ;COMPUTE NEW TXTUNF
   0117   6F               MOV  L,A
   0118   3E00             MVI  A,0
   011A   8C               ADC  H
   011B   67               MOV  H,A                        ;HL->NEW UNFILLED AREA
   011C   11001F           LXI  D,TXTEND                   ;CHECK TO SEE IF THERE
   011F   E7               RST  4                          ;IS ENOUGH SPACE
   0120   D2F604           JNC  QSORRY                     ;SORRY, NO ROOM FOR IT
   0123   221508           SHLD TXTUNF                     ;OK, UPDATE TXTUNF
   0126   D1               POP  D                          ;DE->OLD UNFILLED AREA
   0127   CDF105           CALL MVDOWN
   012A   D1               POP  D                          ;DE->BEGIN, HL->END
1
 8080 MACRO ASSEMBLER, VER 3.0        ERRORS = 0
+                                                      13:28  11/10/2019
+                                                                                      PAGE 6


   012B   E1               POP  H
   012C   CDE805           CALL MVUP                       ;MOVE NEW LINE TO SAVE
   012F   C3D600           JMP  ST3                        ;AREA
                   ;
                   ;*************************************************************
                   ;
                   ; WHAT FOLLOWS IS THE CODE TO EXECUTE DIRECT AND STATEMENT
                   ; COMMANDS.  CONTROL IS TRANSFERED TO THESE POINTS VIA THE
                   ; COMMAND TABLE LOOKUP CODE OF 'DIRECT' AND 'EXEC' IN LAST
                   ; SECTION.  AFTER THE COMMAND IS EXECUTED, CONTROL IS
                   ; TRANSFERED TO OTHERS SECTIONS AS FOLLOWS:
                   ;
                   ; FOR 'LIST', 'NEW', AND 'STOP': GO BACK TO 'RSTART'
                   ; FOR 'RUN': GO EXECUTE THE FIRST STORED LINE IF ANY, ELSE
                   ; GO BACK TO 'RSTART'.
                   ; FOR 'GOTO' AND 'GOSUB': GO EXECUTE THE TARGET LINE.
                   ; FOR 'RETURN' AND 'NEXT': GO BACK TO SAVED RETURN LINE.
                   ; FOR ALL OTHERS: IF 'CURRENT' -> 0, GO TO 'RSTART', ELSE
                   ; GO EXECUTE NEXT COMMAND.  (THIS IS DONE IN 'FINISH'.)
                   ;*************************************************************
                   ;
                   ; *** NEW *** STOP *** RUN (& FRIENDS) *** & GOTO ***
                   ;
                   ; 'NEW(CR)' SETS 'TXTUNF' TO POINT TO 'TXTBGN'
                   ;
                   ; 'STOP(CR)' GOES BACK TO 'RSTART'
                   ;
                   ; 'RUN(CR)' FINDS THE FIRST STORED LINE, STORE ITS ADDRESS (IN
                   ; 'CURRENT'), AND START EXECUTE IT.  NOTE THAT ONLY THOSE
                   ; COMMANDS IN TAB2 ARE LEGAL FOR STORED PROGRAM.
                   ;
                   ; THERE ARE 3 MORE ENTRIES IN 'RUN':
                   ; 'RUNNXL' FINDS NEXT LINE, STORES ITS ADDR. AND EXECUTES IT.
                   ; 'RUNTSL' STORES THE ADDRESS OF THIS LINE AND EXECUTES IT.
                   ; 'RUNSML' CONTINUES THE EXECUTION ON SAME LINE.
                   ;
                   ; 'GOTO EXPR(CR)' EVALUATES THE EXPRESSION, FIND THE TARGET
                   ; LINE, AND JUMP TO 'RUNTSL' TO DO IT.
                   ;
   0132   CDC504   NEW:    CALL ENDCHK                     ;*** NEW(CR) ***
   0135   211708           LXI  H,TXTBGN
   0138   221508           SHLD TXTUNF
                   ;
   013B   CDC504   STOP:   CALL ENDCHK                     ;*** STOP(CR) ***
   013E   C3BA00           JMP  RSTART
                   ;
   0141   CDC504   RUN:    CALL ENDCHK                     ;*** RUN(CR) ***
   0144   111708           LXI  D,TXTBGN                   ;FIRST SAVED LINE
                   ;
   0147   210000   RUNNXL: LXI  H,0                        ;*** RUNNXL ***
   014A   CD4305           CALL FNDLP                      ;FIND WHATEVER LINE #
1
 8080 MACRO ASSEMBLER, VER 3.0        ERRORS = 0
+                                                      13:28  11/10/2019
+                                                                                      PAGE 7


   014D   DABA00           JC   RSTART                     ;C:PASSED TXTUNF, QUIT
                   ;
   0150   EB       RUNTSL: XCHG                            ;*** RUNTSL ***
   0151   220108           SHLD CURRNT                     ;SET 'CURRENT'->LINE #
   0154   EB               XCHG
   0155   13               INX  D                          ;BUMP PASS LINE #
   0156   13               INX  D
                   ;
   0157   CD8706   RUNSML: CALL CHKIO                      ;*** RUNSML ***
   015A   21C006           LXI  H,TAB2-1                   ;FIND COMMAND IN TAB2
   015D   C33E07           JMP  EXEC                       ;AND EXECUTE IT
                   ;
   0160   DF       GOTO:   RST  3                          ;*** GOTO EXPR ***
   0161   D5               PUSH D                          ;SAVE FOR ERROR ROUTINE
   0162   CDC504           CALL ENDCHK                     ;MUST FIND A CR
   0165   CD3B05           CALL FNDLN                      ;FIND THE TARGET LINE
   0168   C2A000           JNZ  AHOW                       ;NO SUCH LINE #
   016B   F1               POP  PSW                        ;CLEAR THE PUSH DE
   016C   C35001           JMP  RUNTSL                     ;GO DO IT
                   ;
                   ;*************************************************************
                   ;
                   ; *** LIST *** & PRINT ***
                   ;
                   ; LIST HAS TWO FORMS:
                   ; 'LIST(CR)' LISTS ALL SAVED LINES
                   ; 'LIST #(CR)' START LIST AT THIS LINE #
                   ; YOU CAN STOP THE LISTING BY CONTROL C KEY
                   ;
                   ; PRINT COMMAND IS 'PRINT ....;' OR 'PRINT ....(CR)'
                   ; WHERE '....' IS A LIST OF EXPRESIONS, FORMATS, BACK-
                   ; ARROWS, AND STRINGS.  THESE ITEMS ARE SEPERATED BY COMMAS.
                   ;
                   ; A FORMAT IS A POUND SIGN FOLLOWED BY A NUMBER.  IT CONTROLS
                   ; THE NUMBER OF SPACES THE VALUE OF A EXPRESION IS GOING TO
                   ; BE PRINTED.  IT STAYS EFFECTIVE FOR THE REST OF THE PRINT
                   ; COMMAND UNLESS CHANGED BY ANOTHER FORMAT.  IF NO FORMAT IS
                   ; SPECIFIED, 6 POSITIONS WILL BE USED.
                   ;
                   ; A STRING IS QUOTED IN A PAIR OF SINGLE QUOTES OR A PAIR OF
                   ; DOUBLE QUOTES.
                   ;
                   ; A BACK-ARROW MEANS GENERATE A (CR) WITHOUT (LF)
                   ;
                   ; A (CRLF) IS GENERATED AFTER THE ENTIRE LIST HAS BEEN
                   ; PRINTED OR IF THE LIST IS A NULL LIST.  HOWEVER IF THE LIST
                   ; ENDED WITH A COMMA, NO (CRLF) IS GENERATED.
                   ;
   016F   CD7700   LIST:   CALL TSTNUM                     ;TEST IF THERE IS A #
   0172   CDC504           CALL ENDCHK                     ;IF NO # WE GET A 0
   0175   CD3B05           CALL FNDLN                      ;FIND THIS OR NEXT LINE
1
 8080 MACRO ASSEMBLER, VER 3.0        ERRORS = 0
+                                                      13:28  11/10/2019
+                                                                                      PAGE 8


   0178   DABA00   LS1:    JC   RSTART                     ;C:PASSED TXTUNF
   017B   CDD505           CALL PRTLN                      ;PRINT THE LINE
   017E   CD8706           CALL CHKIO                      ;STOP IF HIT CONTROL-C
   0181   CD4305           CALL FNDLP                      ;FIND NEXT LINE
   0184   C37801           JMP  LS1                        ;AND LOOP BACK
                   ;
   0187   0E06     PRINT:  MVI  C,6                        ;C = # OF SPACES
   0189   CF               RST  1                          ;IF NULL LIST & ";"
   018A   3B               DB   3BH
   018B   06               DB   PR2-$-1
   018C   CD0E00           CALL CRLF                       ;GIVE CR-LF AND
   018F   C35701           JMP  RUNSML                     ;CONTINUE SAME LINE
   0192   CF       PR2:    RST  1                          ;IF NULL LIST (CR)
   0193   0D               DB   CR
   0194   06               DB   PR0-$-1
   0195   CD0E00           CALL CRLF                       ;ALSO GIVE CR-LF AND
   0198   C34701           JMP  RUNNXL                     ;GO TO NEXT LINE
   019B   CF       PR0:    RST  1                          ;ELSE IS IT FORMAT?
   019C   23               DB   '#'
   019D   05               DB   PR1-$-1
   019E   DF               RST  3                          ;YES, EVALUATE EXPR.
   019F   4D               MOV  C,L                        ;AND SAVE IT IN C
   01A0   C3A901           JMP  PR3                        ;LOOK FOR MORE TO PRINT
   01A3   CD6F05   PR1:    CALL QTSTG                      ;OR IS IT A STRING?
   01A6   C3B601           JMP  PR8                        ;IF NOT, MUST BE EXPR.
   01A9   CF       PR3:    RST  1                          ;IF ",", GO FIND NEXT
   01AA   2C               DB   ','
   01AB   06               DB   PR6-$-1
   01AC   CDB604           CALL FIN                        ;IN THE LIST.
   01AF   C39B01           JMP  PR0                        ;LIST CONTINUES
   01B2   CD0E00   PR6:    CALL CRLF                       ;LIST ENDS
   01B5   F7               RST  6
   01B6   DF       PR8:    RST  3                          ;EVALUATE THE EXPR
   01B7   C5               PUSH B
   01B8   CD9505           CALL PRTNUM                     ;PRINT THE VALUE
   01BB   C1               POP  B
   01BC   C3A901           JMP  PR3                        ;MORE TO PRINT?
                   ;
                   ;*************************************************************
                   ;
                   ; *** GOSUB *** & RETURN ***
                   ;
                   ; 'GOSUB EXPR;' OR 'GOSUB EXPR (CR)' IS LIKE THE 'GOTO'
                   ; COMMAND, EXCEPT THAT THE CURRENT TEXT POINTER, STACK POINTER
                   ; ETC. ARE SAVE SO THAT EXECUTION CAN BE CONTINUED AFTER THE
                   ; SUBROUTINE 'RETURN'.  IN ORDER THAT 'GOSUB' CAN BE NESTED
                   ; (AND EVEN RECURSIVE), THE SAVE AREA MUST BE STACKED.
                   ; THE STACK POINTER IS SAVED IN 'STKGOS', THE OLD 'STKGOS' IS
                   ; SAVED IN THE STACK.  IF WE ARE IN THE MAIN ROUTINE, 'STKGOS'
                   ; IS ZERO (THIS WAS DONE BY THE "MAIN" SECTION OF THE CODE),
                   ; BUT WE STILL SAVE IT AS A FLAG FOR NO FURTHER 'RETURN'S.
1
 8080 MACRO ASSEMBLER, VER 3.0        ERRORS = 0
+                                                      13:28  11/10/2019
+                                                                                      PAGE 9


                   ;
                   ; 'RETURN(CR)' UNDOS EVERYTHING THAT 'GOSUB' DID, AND THUS
                   ; RETURN THE EXECUTION TO THE COMMAND AFTER THE MOST RECENT
                   ; 'GOSUB'.  IF 'STKGOS' IS ZERO, IT INDICATES THAT WE
                   ; NEVER HAD A 'GOSUB' AND IS THUS AN ERROR.
                   ;
   01BF   CD1C06   GOSUB:  CALL PUSHA                      ;SAVE THE CURRENT "FOR"
   01C2   DF               RST  3                          ;PARAMETERS
   01C3   D5               PUSH D                          ;AND TEXT POINTER
   01C4   CD3B05           CALL FNDLN                      ;FIND THE TARGET LINE
   01C7   C2A000           JNZ  AHOW                       ;NOT THERE. SAY "HOW?"
   01CA   2A0108           LHLD CURRNT                     ;FOUND IT, SAVE OLD
   01CD   E5               PUSH H                          ;'CURRNT' OLD 'STKGOS'
   01CE   2A0308           LHLD STKGOS
   01D1   E5               PUSH H
   01D2   210000           LXI  H,0                        ;AND LOAD NEW ONES
   01D5   220908           SHLD LOPVAR
   01D8   39               DAD  SP
   01D9   220308           SHLD STKGOS
   01DC   C35001           JMP  RUNTSL                     ;THEN RUN THAT LINE
   01DF   CDC504   RETURN: CALL ENDCHK                     ;THERE MUST BE A CR
   01E2   2A0308           LHLD STKGOS                     ;OLD STACK POINTER
   01E5   7C               MOV  A,H                        ;0 MEANS NOT EXIST
   01E6   B5               ORA  L
   01E7   CAC904           JZ   QWHAT                      ;SO, WE SAY: "WHAT?"
   01EA   F9               SPHL                            ;ELSE, RESTORE IT
   01EB   E1               POP  H
   01EC   220308           SHLD STKGOS                     ;AND THE OLD 'STKGOS'
   01EF   E1               POP  H
   01F0   220108           SHLD CURRNT                     ;AND THE OLD 'CURRNT'
   01F3   D1               POP  D                          ;OLD TEXT POINTER
   01F4   CD0006           CALL POPA                       ;OLD "FOR" PARAMETERS
   01F7   F7               RST  6                          ;AND WE ARE BACK HOME
                   ;
                   ;*************************************************************
                   ;
                   ; *** FOR *** & NEXT ***
                   ;
                   ; 'FOR' HAS TWO FORMS:
                   ; 'FOR VAR=EXP1 TO EXP2 STEP EXP3' AND 'FOR VAR=EXP1 TO EXP2'
                   ; THE SECOND FORM MEANS THE SAME THING AS THE FIRST FORM WITH
                   ; EXP3=1.  (I.E., WITH A STEP OF +1.)
                   ; TBI WILL FIND THE VARIABLE VAR, AND SET ITS VALUE TO THE
                   ; CURRENT VALUE OF EXP1.  IT ALSO EVALUATES EXP2 AND EXP3
                   ; AND SAVE ALL THESE TOGETHER WITH THE TEXT POINTER ETC. IN
                   ; THE 'FOR' SAVE AREA, WHICH CONSISTS OF 'LOPVAR', 'LOPINC',
                   ; 'LOPLMT', 'LOPLN', AND 'LOPPT'.  IF THERE IS ALREADY SOME-
                   ; THING IN THE SAVE AREA (THIS IS INDICATED BY A NON-ZERO
                   ; 'LOPVAR'), THEN THE OLD SAVE AREA IS SAVED IN THE STACK
                   ; BEFORE THE NEW ONE OVERWRITES IT.
                   ; TBI WILL THEN DIG IN THE STACK AND FIND OUT IF THIS SAME
1
 8080 MACRO ASSEMBLER, VER 3.0        ERRORS = 0
+                                                      13:28  11/10/2019
+                                                                                      PAGE 10


                   ; VARIABLE WAS USED IN ANOTHER CURRENTLY ACTIVE 'FOR' LOOP.
                   ; IF THAT IS THE CASE, THEN THE OLD 'FOR' LOOP IS DEACTIVATED.
                   ; (PURGED FROM THE STACK..)
                   ;
                   ; 'NEXT VAR' SERVES AS THE LOGICAL (NOT NECESSARILLY PHYSICAL)
                   ; END OF THE 'FOR' LOOP.  THE CONTROL VARIABLE VAR. IS CHECKED
                   ; WITH THE 'LOPVAR'.  IF THEY ARE NOT THE SAME, TBI DIGS IN
                   ; THE STACK TO FIND THE RIGHT ONE AND PURGES ALL THOSE THAT
                   ; DID NOT MATCH.  EITHER WAY, TBI THEN ADDS THE 'STEP' TO
                   ; THAT VARIABLE AND CHECK THE RESULT WITH THE LIMIT.  IF IT
                   ; IS WITHIN THE LIMIT, CONTROL LOOPS BACK TO THE COMMAND
                   ; FOLLOWING THE 'FOR'.  IF OUTSIDE THE LIMIT, THE SAVE AREA
                   ; IS PURGED AND EXECUTION CONTINUES.
                   ;
   01F8   CD1C06   FOR:    CALL PUSHA                      ;SAVE THE OLD SAVE AREA
   01FB   CDA304           CALL SETVAL                     ;SET THE CONTROL VAR.
   01FE   2B               DCX  H                          ;HL IS ITS ADDRESS
   01FF   220908           SHLD LOPVAR                     ;SAVE THAT
   0202   211607           LXI  H,TAB5-1                   ;USE 'EXEC' TO LOOK
   0205   C33E07           JMP  EXEC                       ;FOR THE WORD 'TO'
   0208   DF       FR1:    RST  3                          ;EVALUATE THE LIMIT
   0209   220D08           SHLD LOPLMT                     ;SAVE THAT
   020C   211C07           LXI  H,TAB6-1                   ;USE 'EXEC' TO LOOK
   020F   C33E07           JMP EXEC                        ;FOR THE WORD 'STEP'
   0212   DF       FR2:    RST  3                          ;FOUND IT, GET STEP
   0213   C31902           JMP  FR4
   0216   210100   FR3:    LXI  H,1H                       ;NOT FOUND, SET TO 1
   0219   220B08   FR4:    SHLD LOPINC                     ;SAVE THAT TOO
   021C   2A0108   FR5:    LHLD CURRNT                     ;SAVE CURRENT LINE #
   021F   220F08           SHLD LOPLN
   0222   EB               XCHG                            ;AND TEXT POINTER
   0223   221108           SHLD LOPPT
   0226   010A00           LXI  B,0AH                      ;DIG INTO STACK TO
   0229   2A0908           LHLD LOPVAR                     ;FIND 'LOPVAR'
   022C   EB               XCHG
   022D   60               MOV  H,B
   022E   68               MOV  L,B                        ;HL=0 NOW
   022F   39               DAD  SP                         ;HERE IS THE STACK
   0230   3E               DB   3EH
   0231   09       FR7:    DAD  B                          ;EACH LEVEL IS 10 DEEP
   0232   7E               MOV  A,M                        ;GET THAT OLD 'LOPVAR'
   0233   23               INX  H
   0234   B6               ORA  M
   0235   CA5202           JZ   FR8                        ;0 SAYS NO MORE IN IT
   0238   7E               MOV  A,M
   0239   2B               DCX  H
   023A   BA               CMP  D                          ;SAME AS THIS ONE?
   023B   C23102           JNZ  FR7
   023E   7E               MOV  A,M                        ;THE OTHER HALF?
   023F   BB               CMP  E
   0240   C23102           JNZ  FR7
1
 8080 MACRO ASSEMBLER, VER 3.0        ERRORS = 0
+                                                      13:28  11/10/2019
+                                                                                      PAGE 11


   0243   EB               XCHG                            ;YES, FOUND ONE
   0244   210000           LXI  H,0H
   0247   39               DAD  SP                         ;TRY TO MOVE SP
   0248   44               MOV  B,H
   0249   4D               MOV  C,L
   024A   210A00           LXI  H,0AH
   024D   19               DAD  D
   024E   CDF105           CALL MVDOWN                     ;AND PURGE 10 WORDS
   0251   F9               SPHL                            ;IN THE STACK
   0252   2A1108   FR8:    LHLD LOPPT                      ;JOB DONE, RESTORE DE
   0255   EB               XCHG
   0256   F7               RST  6                          ;AND CONTINUE
                   ;
   0257   FF       NEXT:   RST  7                          ;GET ADDRESS OF VAR.
   0258   DAC904           JC   QWHAT                      ;NO VARIABLE, "WHAT?"
   025B   220508           SHLD VARNXT                     ;YES, SAVE IT
   025E   D5       NX0:    PUSH D                          ;SAVE TEXT POINTER
   025F   EB               XCHG
   0260   2A0908           LHLD LOPVAR                     ;GET VAR. IN 'FOR'
   0263   7C               MOV  A,H
   0264   B5               ORA  L                          ;0 SAYS NEVER HAD ONE
   0265   CACA04           JZ   AWHAT                      ;SO WE ASK: "WHAT?"
   0268   E7               RST  4                          ;ELSE WE CHECK THEM
   0269   CA7602           JZ   NX3                        ;OK, THEY AGREE
   026C   D1               POP  D                          ;NO, LET'S SEE
   026D   CD0006           CALL POPA                       ;PURGE CURRENT LOOP
   0270   2A0508           LHLD VARNXT                     ;AND POP ONE LEVEL
   0273   C35E02           JMP  NX0                        ;GO CHECK AGAIN
   0276   5E       NX3:    MOV  E,M                        ;COME HERE WHEN AGREED
   0277   23               INX  H
   0278   56               MOV  D,M                        ;DE=VALUE OF VAR.
   0279   2A0B08           LHLD LOPINC
   027C   E5               PUSH H
   027D   7C               MOV  A,H
   027E   AA               XRA  D
   027F   7A               MOV  A,D
   0280   19               DAD  D                          ;ADD ONE STEP
   0281   FA8802           JM   NX4
   0284   AC               XRA  H
   0285   FAAA02           JM   NX5
   0288   EB       NX4:    XCHG
   0289   2A0908           LHLD LOPVAR                     ;PUT IT BACK
   028C   73               MOV  M,E
   028D   23               INX  H
   028E   72               MOV  M,D
   028F   2A0D08           LHLD LOPLMT                     ;HL->LIMIT
   0292   F1               POP  PSW                        ;OLD HL
   0293   B7               ORA  A
   0294   F29802           JP   NX1                        ;STEP > 0
   0297   EB               XCHG                            ;STEP < 0
   0298   CD9B04   NX1:    CALL CKHLDE                     ;COMPARE WITH LIMIT
1
 8080 MACRO ASSEMBLER, VER 3.0        ERRORS = 0
+                                                      13:28  11/10/2019
+                                                                                      PAGE 12


   029B   D1               POP  D                          ;RESTORE TEXT POINTER
   029C   DAAC02           JC   NX2                        ;OUTSIDE LIMIT
   029F   2A0F08           LHLD LOPLN                      ;WITHIN LIMIT, GO
   02A2   220108           SHLD CURRNT                     ;BACK TO THE SAVED
   02A5   2A1108           LHLD LOPPT                      ;'CURRNT' AND TEXT
   02A8   EB               XCHG                            ;POINTER
   02A9   F7               RST  6
   02AA   E1       NX5:    POP  H
   02AB   D1               POP  D
   02AC   CD0006   NX2:    CALL POPA                       ;PURGE THIS LOOP
   02AF   F7               RST  6
                   ;
                   ;*************************************************************
                   ;
                   ; *** REM *** IF *** INPUT *** & LET (& DEFLT) ***
                   ;
                   ; 'REM' CAN BE FOLLOWED BY ANYTHING AND IS IGNORED BY TBI.
                   ; TBI TREATS IT LIKE AN 'IF' WITH A FALSE CONDITION.
                   ;
                   ; 'IF' IS FOLLOWED BY AN EXPR. AS A CONDITION AND ONE OR MORE
                   ; COMMANDS (INCLUDING OTHER 'IF'S) SEPERATED BY SEMI-COLONS.
                   ; NOTE THAT THE WORD 'THEN' IS NOT USED.  TBI EVALUATES THE
                   ; EXPR. IF IT IS NON-ZERO, EXECUTION CONTINUES.  IF THE
                   ; EXPR. IS ZERO, THE COMMANDS THAT FOLLOWS ARE IGNORED AND
                   ; EXECUTION CONTINUES AT THE NEXT LINE.
                   ;
                   ; 'INPUT' COMMAND IS LIKE THE 'PRINT' COMMAND, AND IS FOLLOWED
                   ; BY A LIST OF ITEMS.  IF THE ITEM IS A STRING IN SINGLE OR
                   ; DOUBLE QUOTES, OR IS A BACK-ARROW, IT HAS THE SAME EFFECT AS
                   ; IN 'PRINT'.  IF AN ITEM IS A VARIABLE, THIS VARIABLE NAME IS
                   ; PRINTED OUT FOLLOWED BY A COLON.  THEN TBI WAITS FOR AN
                   ; EXPR. TO BE TYPED IN.  THE VARIABLE IS THEN SET TO THE
                   ; VALUE OF THIS EXPR.  IF THE VARIABLE IS PROCEDED BY A STRING
                   ; (AGAIN IN SINGLE OR DOUBLE QUOTES), THE STRING WILL BE
                   ; PRINTED FOLLOWED BY A COLON.  TBI THEN WAITS FOR INPUT EXPR.
                   ; AND SET THE VARIABLE TO THE VALUE OF THE EXPR.
                   ;
                   ; IF THE INPUT EXPR. IS INVALID, TBI WILL PRINT "WHAT?",
                   ; "HOW?" OR "SORRY" AND REPRINT THE PROMPT AND REDO THE INPUT.
                   ; THE EXECUTION WILL NOT TERMINATE UNLESS YOU TYPE CONTROL-C.
                   ; THIS IS HANDLED IN 'INPERR'.
                   ;
                   ; 'LET' IS FOLLOWED BY A LIST OF ITEMS SEPERATED BY COMMAS.
                   ; EACH ITEM CONSISTS OF A VARIABLE, AN EQUAL SIGN, AND AN EXPR.
                   ; TBI EVALUATES THE EXPR. AND SET THE VARIABLE TO THAT VALUE.
                   ; TBI WILL ALSO HANDLE 'LET' COMMAND WITHOUT THE WORD 'LET'.
                   ; THIS IS DONE BY 'DEFLT'.
                   ;
   02B0   210000   REM:    LXI  H,0H                       ;*** REM ***
   02B3   3E               DB   3EH                        ;THIS IS LIKE 'IF 0'
                   ;
1
 8080 MACRO ASSEMBLER, VER 3.0        ERRORS = 0
+                                                      13:28  11/10/2019
+                                                                                      PAGE 13


   02B4   DF       IFF:    RST  3                          ;*** IF ***
   02B5   7C               MOV  A,H                        ;IS THE EXPR.=0?
   02B6   B5               ORA  L
   02B7   C25701           JNZ  RUNSML                     ;NO, CONTINUE
   02BA   CD5905           CALL FNDSKP                     ;YES, SKIP REST OF LINE
   02BD   D25001           JNC  RUNTSL                     ;AND RUN THE NEXT LINE
   02C0   C3BA00           JMP  RSTART                     ;IF NO NEXT, RE-START
                   ;
   02C3   2A0708   INPERR: LHLD STKINP                     ;*** INPERR ***
   02C6   F9               SPHL                            ;RESTORE OLD SP
   02C7   E1               POP  H                          ;AND OLD 'CURRNT'
   02C8   220108           SHLD CURRNT
   02CB   D1               POP  D                          ;AND OLD TEXT POINTER
   02CC   D1               POP  D                          ;REDO INPUT
                   ;
   02CD            INPUT:                                  ;*** INPUT ***
   02CD   D5       IP1:    PUSH D                          ;SAVE IN CASE OF ERROR
   02CE   CD6F05           CALL QTSTG                      ;IS NEXT ITEM A STRING?
   02D1   C3DB02           JMP  IP2                        ;NO
   02D4   FF               RST  7                          ;YES, BUT FOLLOWED BY A
   02D5   DA1503           JC   IP4                        ;VARIABLE?   NO.
   02D8   C3EB02           JMP  IP3                        ;YES.  INPUT VARIABLE
   02DB   D5       IP2:    PUSH D                          ;SAVE FOR 'PRTSTG'
   02DC   FF               RST  7                          ;MUST BE VARIABLE NOW
   02DD   DAC904           JC   QWHAT                      ;"WHAT?" IT IS NOT?
   02E0   1A               LDAX D                          ;GET READY FOR 'PRTSTR'
   02E1   4F               MOV  C,A
   02E2   97               SUB  A
   02E3   12               STAX D
   02E4   D1               POP  D
   02E5   CD6305           CALL PRTSTG                     ;PRINT STRING AS PROMPT
   02E8   79               MOV  A,C                        ;RESTORE TEXT
   02E9   1B               DCX  D
   02EA   12               STAX D
   02EB   D5       IP3:    PUSH D                          ;SAVE TEXT POINTER
   02EC   EB               XCHG
   02ED   2A0108           LHLD CURRNT                     ;ALSO SAVE 'CURRNT'
   02F0   E5               PUSH H
   02F1   21CD02           LXI  H,IP1                      ;A NEGATIVE NUMBER
   02F4   220108           SHLD CURRNT                     ;AS A FLAG
   02F7   210000           LXI  H,0H                       ;SAVE SP TOO
   02FA   39               DAD  SP
   02FB   220708           SHLD STKINP
   02FE   D5               PUSH D                          ;OLD HL
   02FF   3E3A             MVI  A,3AH                      ;PRINT THIS TOO
   0301   CDFD04           CALL GETLN                      ;AND GET A LINE
   0304   11371F           LXI  D,BUFFER                   ;POINTS TO BUFFER
   0307   DF               RST  3                          ;EVALUATE INPUT
   0308   00               NOP                             ;CAN BE 'CALL ENDCHK'
   0309   00               NOP
   030A   00               NOP
1
 8080 MACRO ASSEMBLER, VER 3.0        ERRORS = 0
+                                                      13:28  11/10/2019
+                                                                                      PAGE 14


   030B   D1               POP  D                          ;OK, GET OLD HL
   030C   EB               XCHG
   030D   73               MOV  M,E                        ;SAVE VALUE IN VAR.
   030E   23               INX  H
   030F   72               MOV  M,D
   0310   E1               POP  H                          ;GET OLD 'CURRNT'
   0311   220108           SHLD CURRNT
   0314   D1               POP  D                          ;AND OLD TEXT POINTER
   0315   F1       IP4:    POP  PSW                        ;PURGE JUNK IN STACK
   0316   CF               RST  1                          ;IS NEXT CH. ','?
   0317   2C               DB   ','
   0318   03               DB   IP5-$-1
   0319   C3CD02           JMP  IP1                        ;YES, MORE ITEMS.
   031C   F7       IP5:    RST  6
                   ;
   031D   1A       DEFLT:  LDAX D                          ;***  DEFLT ***
   031E   FE0D             CPI  CR                         ;EMPTY LINE IS OK
   0320   CA2C03           JZ   LT1                        ;ELSE IT IS 'LET'
                   ;
   0323   CDA304   LET:    CALL SETVAL                     ;*** LET ***
   0326   CF               RST  1                          ;SET VALUE TO VAR.
   0327   2C               DB   ','
   0328   03               DB   LT1-$-1
   0329   C32303           JMP  LET                        ;ITEM BY ITEM
   032C   F7       LT1:    RST  6                          ;UNTIL FINISH
                   ;
                   ;*************************************************************
                   ;
                   ; *** EXPR ***
                   ;
                   ; 'EXPR' EVALUATES ARITHMETICAL OR LOGICAL EXPRESSIONS.
                   ; <EXPR>::<EXPR2>
                   ;         <EXPR2><REL.OP.><EXPR2>
                   ; WHERE <REL.OP.> IS ONE OF THE OPERATORS IN TAB8 AND THE
                   ; RESULT OF THESE OPERATIONS IS 1 IF TRUE AND 0 IF FALSE.
                   ; <EXPR2>::=(+ OR -)<EXPR3>(+ OR -<EXPR3>)(....)
                   ; WHERE () ARE OPTIONAL AND (....) ARE OPTIONAL REPEATS.
                   ; <EXPR3>::=<EXPR4>(* OR /><EXPR4>)(....)
                   ; <EXPR4>::=<VARIABLE>
                   ;           <FUNCTION>
                   ;           (<EXPR>)
                   ; <EXPR> IS RECURSIVE SO THAT VARIABLE '@' CAN HAVE AN <EXPR>
                   ; AS INDEX, FUNCTIONS CAN HAVE AN <EXPR> AS ARGUMENTS, AND
                   ; <EXPR4> CAN BE AN <EXPR> IN PARANTHESE.
                   ;
                   ;EXPR:  CALL EXPR2                      ;THIS IS AT LOC. 18
                   ;       PUSH H                          ;SAVE <EXPR2> VALUE
   032D   212407   EXPR1:  LXI  H,TAB8-1                   ;LOOKUP REL.OP.
   0330   C33E07           JMP  EXEC                       ;GO DO IT
   0333   CD5C03   XP11:   CALL XP18                       ;REL.OP.">="
   0336   D8               RC                              ;NO, RETURN HL=0
1
 8080 MACRO ASSEMBLER, VER 3.0        ERRORS = 0
+                                                      13:28  11/10/2019
+                                                                                      PAGE 15


   0337   6F               MOV  L,A                        ;YES, RETURN HL=1
   0338   C9               RET
   0339   CD5C03   XP12:   CALL XP18                       ;REL.OP."#"
   033C   C8               RZ                              ;FALSE, RETURN HL=0
   033D   6F               MOV  L,A                        ;TRUE, RETURN HL=1
   033E   C9               RET
   033F   CD5C03   XP13:   CALL XP18                       ;REL.OP.">"
   0342   C8               RZ                              ;FALSE
   0343   D8               RC                              ;ALSO FALSE, HL=0
   0344   6F               MOV  L,A                        ;TRUE, HL=1
   0345   C9               RET
   0346   CD5C03   XP14:   CALL XP18                       ;REL.OP."<="
   0349   6F               MOV  L,A                        ;SET HL=1
   034A   C8               RZ                              ;REL. TRUE, RETURN
   034B   D8               RC
   034C   6C               MOV  L,H                        ;ELSE SET HL=0
   034D   C9               RET
   034E   CD5C03   XP15:   CALL XP18                       ;REL.OP."="
   0351   C0               RNZ                             ;FALSE, RETURN HL=0
   0352   6F               MOV  L,A                        ;ELSE SET HL=1
   0353   C9               RET
   0354   CD5C03   XP16:   CALL XP18                       ;REL.OP."<"
   0357   D0               RNC                             ;FALSE, RETURN HL=0
   0358   6F               MOV  L,A                        ;ELSE SET HL=1
   0359   C9               RET
   035A   E1       XP17:   POP  H                          ;NOT .REL.OP
   035B   C9               RET                             ;RETURN HL=<EXPR2>
   035C   79       XP18:   MOV  A,C                        ;SUBROUTINE FOR ALL
   035D   E1               POP  H                          ;REL.OP.'S
   035E   C1               POP  B
   035F   E5               PUSH H                          ;REVERSE TOP OF STACK
   0360   C5               PUSH B
   0361   4F               MOV  C,A
   0362   CD7103           CALL EXPR2                      ;GET 2ND <EXPR2>
   0365   EB               XCHG                            ;VALUE IN DE NOW
   0366   E3               XTHL                            ;1ST <EXPR2> IN HL
   0367   CD9B04           CALL CKHLDE                     ;COMPARE 1ST WITH 2ND
   036A   D1               POP  D                          ;RESTORE TEXT POINTER
   036B   210000           LXI  H,0H                       ;SET HL=0, A=1
   036E   3E01             MVI  A,1
   0370   C9               RET
                   ;
   0371   CF       EXPR2:  RST  1                          ;NEGATIVE SIGN?
   0372   2D               DB   '-'
   0373   06               DB   XP21-$-1
   0374   210000           LXI  H,0H                       ;YES, FAKE '0-'
   0377   C39B03           JMP  XP26                       ;TREAT LIKE SUBTRACT
   037A   CF       XP21:   RST  1                          ;POSITIVE SIGN? IGNORE
   037B   2B               DB   '+'
   037C   00               DB   XP22-$-1
   037D   CDA503   XP22:   CALL EXPR3                      ;1ST <EXPR3>
1
 8080 MACRO ASSEMBLER, VER 3.0        ERRORS = 0
+                                                      13:28  11/10/2019
+                                                                                      PAGE 16


   0380   CF       XP23:   RST  1                          ;ADD?
   0381   2B               DB   '+'
   0382   15               DB   XP25-$-1
   0383   E5               PUSH H                          ;YES, SAVE VALUE
   0384   CDA503           CALL EXPR3                      ;GET 2ND <EXPR3>
   0387   EB       XP24:   XCHG                            ;2ND IN DE
   0388   E3               XTHL                            ;1ST IN HL
   0389   7C               MOV  A,H                        ;COMPARE SIGN
   038A   AA               XRA  D
   038B   7A               MOV  A,D
   038C   19               DAD  D
   038D   D1               POP  D                          ;RESTORE TEXT POINTER
   038E   FA8003           JM   XP23                       ;1ST AND 2ND SIGN DIFFER
   0391   AC               XRA  H                          ;1ST AND 2ND SIGN EQUAL
   0392   F28003           JP   XP23                       ;SO IS RESULT
   0395   C39F00           JMP  QHOW                       ;ELSE WE HAVE OVERFLOW
   0398   CF       XP25:   RST  1                          ;SUBTRACT?
   0399   2D               DB   '-'
   039A   86               DB   XP42-$-1
   039B   E5       XP26:   PUSH H                          ;YES, SAVE 1ST <EXPR3>
   039C   CDA503           CALL EXPR3                      ;GET 2ND <EXPR3>
   039F   CD8604           CALL CHGSGN                     ;NEGATE
   03A2   C38703           JMP  XP24                       ;AND ADD THEM
                   ;
   03A5   CD0504   EXPR3:  CALL EXPR4                      ;GET 1ST <EXPR4>
   03A8   CF       XP31:   RST  1                          ;MULTIPLY?
   03A9   2A               DB   '*'
   03AA   2D               DB   XP34-$-1
   03AB   E5               PUSH H                          ;YES, SAVE 1ST
   03AC   CD0504           CALL EXPR4                      ;AND GET 2ND <EXPR4>
   03AF   0600             MVI  B,0H                       ;CLEAR B FOR SIGN
   03B1   CD8304           CALL CHKSGN                     ;CHECK SIGN
   03B4   E3               XTHL                            ;1ST IN HL
   03B5   CD8304           CALL CHKSGN                     ;CHECK SIGN OF 1ST
   03B8   EB               XCHG
   03B9   E3               XTHL
   03BA   7C               MOV  A,H                        ;IS HL > 255 ?
   03BB   B7               ORA  A
   03BC   CAC503           JZ   XP32                       ;NO
   03BF   7A               MOV  A,D                        ;YES, HOW ABOUT DE
   03C0   B2               ORA  D
   03C1   EB               XCHG                            ;PUT SMALLER IN HL
   03C2   C2A000           JNZ  AHOW                       ;ALSO >, WILL OVERFLOW
   03C5   7D       XP32:   MOV  A,L                        ;THIS IS DUMB
   03C6   210000           LXI  H,0H                       ;CLEAR RESULT
   03C9   B7               ORA  A                          ;ADD AND COUNT
   03CA   CAF703           JZ   XP35
   03CD   19       XP33:   DAD  D
   03CE   DAA000           JC   AHOW                       ;OVERFLOW
   03D1   3D               DCR  A
   03D2   C2CD03           JNZ  XP33
1
 8080 MACRO ASSEMBLER, VER 3.0        ERRORS = 0
+                                                      13:28  11/10/2019
+                                                                                      PAGE 17


   03D5   C3F703           JMP  XP35                       ;FINISHED
   03D8   CF       XP34:   RST  1                          ;DIVIDE?
   03D9   2F               DB   '/'
   03DA   46               DB   XP42-$-1
   03DB   E5               PUSH H                          ;YES, SAVE 1ST <EXPR4>
   03DC   CD0504           CALL EXPR4                      ;AND GET THE SECOND ONE
   03DF   0600             MVI  B,0H                       ;CLEAR B FOR SIGN
   03E1   CD8304           CALL CHKSGN                     ;CHECK SIGN OF 2ND
   03E4   E3               XTHL                            ;GET 1ST IN HL
   03E5   CD8304           CALL CHKSGN                     ;CHECK SIGN OF 1ST
   03E8   EB               XCHG
   03E9   E3               XTHL
   03EA   EB               XCHG
   03EB   7A               MOV  A,D                        ;DIVIDE BY 0?
   03EC   B3               ORA  E
   03ED   CAA000           JZ   AHOW                       ;SAY "HOW?"
   03F0   C5               PUSH B                          ;ELSE SAVE SIGN
   03F1   CD6604           CALL DIVIDE                     ;USE SUBROUTINE
   03F4   60               MOV  H,B                        ;RESULT IN HL NOW
   03F5   69               MOV  L,C
   03F6   C1               POP  B                          ;GET SIGN BACK
   03F7   D1       XP35:   POP  D                          ;AND TEXT POINTER
   03F8   7C               MOV  A,H                        ;HL MUST BE +
   03F9   B7               ORA  A
   03FA   FA9F00           JM   QHOW                       ;ELSE IT IS OVERFLOW
   03FD   78               MOV  A,B
   03FE   B7               ORA  A
   03FF   FC8604           CM   CHGSGN                     ;CHANGE SIGN IF NEEDED
   0402   C3A803           JMP  XP31                       ;LOOK FOR MORE TERMS
                   ;
   0405   210407   EXPR4:  LXI  H,TAB4-1                   ;FIND FUNCTION IN TAB4
   0408   C33E07           JMP  EXEC                       ;AND GO DO IT
   040B   FF       XP40:   RST  7                          ;NO, NOT A FUNCTION
   040C   DA1404           JC   XP41                       ;NOR A VARIABLE
   040F   7E               MOV  A,M                        ;VARIABLE
   0410   23               INX  H
   0411   66               MOV  H,M                        ;VALUE IN HL
   0412   6F               MOV  L,A
   0413   C9               RET
   0414   CD7700   XP41:   CALL TSTNUM                     ;OR IS IT A NUMBER
   0417   78               MOV  A,B                        ;# OF DIGIT
   0418   B7               ORA  A
   0419   C0               RNZ                             ;OK
   041A   CF       PARN:   RST  1
   041B   28               DB   '('
   041C   05               DB   XP43-$-1
   041D   DF               RST  3                          ;"(EXPR)"
   041E   CF               RST  1
   041F   29               DB   ')'
   0420   01               DB   XP43-$-1
   0421   C9       XP42:   RET
1
 8080 MACRO ASSEMBLER, VER 3.0        ERRORS = 0
+                                                      13:28  11/10/2019
+                                                                                      PAGE 18


   0422   C3C904   XP43:   JMP  QWHAT                      ;ELSE SAY: "WHAT?"
                   ;
   0425   CD1A04   RND:    CALL PARN                       ;*** RND(EXPR) ***
   0428   7C               MOV  A,H                        ;EXPR MUST BE +
   0429   B7               ORA  A
   042A   FA9F00           JM   QHOW
   042D   B5               ORA  L                          ;AND NON-ZERO
   042E   CA9F00           JZ   QHOW
   0431   D5               PUSH D                          ;SAVE BOTH
   0432   E5               PUSH H
   0433   2A1308           LHLD RANPNT                     ;GET MEMORY AS RANDOM
   0436   116C07           LXI  D,LSTROM                   ;NUMBER
   0439   E7               RST  4
   043A   DA4004           JC   RA1                        ;WRAP AROUND IF LAST
   043D   210000           LXI  H,START
   0440   5E       RA1:    MOV  E,M
   0441   23               INX  H
   0442   56               MOV  D,M
   0443   221308           SHLD RANPNT
   0446   E1               POP  H
   0447   EB               XCHG
   0448   C5               PUSH B
   0449   CD6604           CALL DIVIDE                     ;RND(N)=MOD(M,N)+1
   044C   C1               POP  B
   044D   D1               POP  D
   044E   23               INX  H
   044F   C9               RET
                   ;
   0450   CD1A04   ABS:    CALL PARN                       ;*** ABS(EXPR) ***
   0453   1B               DCX  D
   0454   CD8304           CALL CHKSGN                     ;CHECK SIGN
   0457   13               INX  D
   0458   C9               RET
                   ;
   0459   2A1508   SIZE:   LHLD TXTUNF                     ;*** SIZE ***
   045C   D5               PUSH D                          ;GET THE NUMBER OF FREE
   045D   EB               XCHG                            ;BYTES BETWEEN 'TXTUNF'
   045E   21001F           LXI  H,VARBGN                   ;AND 'VARBGN'
   0461   CD7C04           CALL SUBDE
   0464   D1               POP  D
   0465   C9               RET
                   ;
                   ;*************************************************************
                   ;
                   ; *** DIVIDE *** SUBDE *** CHKSGN *** CHGSGN *** & CKHLDE ***
                   ;
                   ; 'DIVIDE' DIVIDES HL BY DE, RESULT IN BC, REMAINDER IN HL
                   ;
                   ; 'SUBDE' SUBSTRACTS DE FROM HL
                   ;
                   ; 'CHKSGN' CHECKS SIGN OF HL.  IF +, NO CHANGE.  IF -, CHANGE
1
 8080 MACRO ASSEMBLER, VER 3.0        ERRORS = 0
+                                                      13:28  11/10/2019
+                                                                                      PAGE 19


                   ; SIGN AND FLIP SIGN OF B.
                   ;
                   ; 'CHGSGN' CHECKS SIGN N OF HL AND B UNCONDITIONALLY.
                   ;
                   ; 'CKHLDE' CHECKS SIGN OF HL AND DE.  IF DIFFERENT, HL AND DE
                   ; ARE INTERCHANGED.  IF SAME SIGN, NOT INTERCHANGED.  EITHER
                   ; CASE, HL DE ARE THEN COMPARED TO SET THE FLAGS.
                   ;
   0466   E5       DIVIDE: PUSH H                          ;*** DIVIDE ***
   0467   6C               MOV  L,H                        ;DIVIDE H BY DE
   0468   2600             MVI  H,0
   046A   CD7104           CALL DV1
   046D   41               MOV  B,C                        ;SAVE RESULT IN B
   046E   7D               MOV  A,L                        ;(REMINDER+L)/DE
   046F   E1               POP  H
   0470   67               MOV  H,A
   0471   0EFF     DV1:    MVI  C,0FFH                     ;RESULT IN C
   0473   0C       DV2:    INR  C                          ;DUMB ROUTINE
   0474   CD7C04           CALL SUBDE                      ;DIVIDE BY SUBTRACT
   0477   D27304           JNC  DV2                        ;AND COUNT
   047A   19               DAD  D
   047B   C9               RET
                   ;
   047C   7D       SUBDE:  MOV  A,L                        ;*** SUBDE ***
   047D   93               SUB  E                          ;SUBSTRACT DE FROM
   047E   6F               MOV  L,A                        ;HL
   047F   7C               MOV  A,H
   0480   9A               SBB  D
   0481   67               MOV  H,A
   0482   C9               RET
                   ;
   0483   7C       CHKSGN: MOV  A,H                        ;*** CHKSGN ***
   0484   B7               ORA  A                          ;CHECK SIGN OF HL
   0485   F0               RP                              ;IF -, CHANGE SIGN
                   ;
   0486   7C       CHGSGN: MOV  A,H                        ;*** CHGSGN ***
   0487   B5               ORA  L                          ;*UM*
   0488   C8               RZ                              ;*UM* NOT ON ZERO VALUE
   0489   7C               MOV  A,H                        ;*UM*
   048A   F5               PUSH PSW
   048B   2F               CMA                             ;CHANGE SIGN OF HL
   048C   67               MOV  H,A
   048D   7D               MOV  A,L
   048E   2F               CMA
   048F   6F               MOV  L,A
   0490   23               INX  H
   0491   F1               POP  PSW
   0492   AC               XRA  H
   0493   F29F00           JP   QHOW
   0496   78               MOV  A,B                        ;AND ALSO FLIP B
   0497   EE80             XRI  80H
1
 8080 MACRO ASSEMBLER, VER 3.0        ERRORS = 0
+                                                      13:28  11/10/2019
+                                                                                      PAGE 20


   0499   47               MOV  B,A
   049A   C9               RET
                   ;
   049B   7C       CKHLDE: MOV  A,H
   049C   AA               XRA  D                          ;SAME SIGN?
   049D   F2A104           JP   CK1                        ;YES, COMPARE
   04A0   EB               XCHG                            ;NO, XCH AND COMP
   04A1   E7       CK1:    RST  4
   04A2   C9               RET
                   ;
                   ;*************************************************************
                   ;
                   ; *** SETVAL *** FIN *** ENDCHK *** & ERROR (& FRIENDS) ***
                   ;
                   ; "SETVAL" EXPECTS A VARIABLE, FOLLOWED BY AN EQUAL SIGN AND
                   ; THEN AN EXPR.  IT EVALUATES THE EXPR. AND SET THE VARIABLE
                   ; TO THAT VALUE.
                   ;
                   ; "FIN" CHECKS THE END OF A COMMAND.  IF IT ENDED WITH ";",
                   ; EXECUTION CONTINUES.  IF IT ENDED WITH A CR, IT FINDS THE
                   ; NEXT LINE AND CONTINUE FROM THERE.
                   ;
                   ; "ENDCHK" CHECKS IF A COMMAND IS ENDED WITH CR.  THIS IS
                   ; REQUIRED IN CERTAIN COMMANDS.  (GOTO, RETURN, AND STOP ETC.)
                   ;
                   ; "ERROR" PRINTS THE STRING POINTED BY DE (AND ENDS WITH CR).
                   ; IT THEN PRINTS THE LINE POINTED BY 'CURRNT' WITH A "?"
                   ; INSERTED AT WHERE THE OLD TEXT POINTER (SHOULD BE ON TOP
                   ; OF THE STACK) POINTS TO.  EXECUTION OF TB IS STOPPED
                   ; AND TBI IS RESTARTED.  HOWEVER, IF 'CURRNT' -> ZERO
                   ; (INDICATING A DIRECT COMMAND), THE DIRECT COMMAND IS NOT
                   ; PRINTED.  AND IF 'CURRNT' -> NEGATIVE # (INDICATING 'INPUT'
                   ; COMMAND), THE INPUT LINE IS NOT PRINTED AND EXECUTION IS
                   ; NOT TERMINATED BUT CONTINUED AT 'INPERR'.
                   ;
                   ; RELATED TO 'ERROR' ARE THE FOLLOWING:
                   ; 'QWHAT' SAVES TEXT POINTER IN STACK AND GET MESSAGE "WHAT?"
                   ; 'AWHAT' JUST GET MESSAGE "WHAT?" AND JUMP TO 'ERROR'.
                   ; 'QSORRY' AND 'ASORRY' DO SAME KIND OF THING.
                   ; 'AHOW' AND 'AHOW' IN THE ZERO PAGE SECTION ALSO DO THIS.
                   ;
   04A3   FF       SETVAL: RST  7                          ;*** SETVAL ***
   04A4   DAC904           JC   QWHAT                      ;"WHAT?" NO VARIABLE
   04A7   E5               PUSH H                          ;SAVE ADDRESS OF VAR.
   04A8   CF               RST  1                          ;PASS "=" SIGN
   04A9   3D               DB   '='
   04AA   08               DB   SV1-$-1
   04AB   DF               RST  3                          ;EVALUATE EXPR.
   04AC   44               MOV  B,H                        ;VALUE IS IN BC NOW
   04AD   4D               MOV  C,L
   04AE   E1               POP  H                          ;GET ADDRESS
1
 8080 MACRO ASSEMBLER, VER 3.0        ERRORS = 0
+                                                      13:28  11/10/2019
+                                                                                      PAGE 21


   04AF   71               MOV  M,C                        ;SAVE VALUE
   04B0   23               INX  H
   04B1   70               MOV  M,B
   04B2   C9               RET
   04B3   C3C904   SV1:    JMP  QWHAT                      ;NO "=" SIGN
                   ;
   04B6   CF       FIN:    RST  1                          ;*** FIN ***
   04B7   3B               DB   3BH
   04B8   04               DB   FI1-$-1
   04B9   F1               POP  PSW                        ;";", PURGE RET. ADDR.
   04BA   C35701           JMP  RUNSML                     ;CONTINUE SAME LINE
   04BD   CF       FI1:    RST  1                          ;NOT ";", IS IT CR?
   04BE   0D               DB   CR
   04BF   04               DB   FI2-$-1
   04C0   F1               POP  PSW                        ;YES, PURGE RET. ADDR.
   04C1   C34701           JMP  RUNNXL                     ;RUN NEXT LINE
   04C4   C9       FI2:    RET                             ;ELSE RETURN TO CALLER
                   ;
   04C5   EF       ENDCHK: RST  5                          ;*** ENDCHK ***
   04C6   FE0D             CPI  CR                         ;END WITH CR?
   04C8   C8               RZ                              ;OK, ELSE SAY: "WHAT?"
                   ;
   04C9   D5       QWHAT:  PUSH D                          ;*** QWHAT ***
   04CA   11AE00   AWHAT:  LXI  D,WHAT                     ;*** AWHAT ***
   04CD   97       ERROR:  SUB  A                          ;*** ERROR ***
   04CE   CD6305           CALL PRTSTG                     ;PRINT 'WHAT?', 'HOW?'
   04D1   D1               POP  D                          ;OR 'SORRY'
   04D2   1A               LDAX D                          ;SAVE THE CHARACTER
   04D3   F5               PUSH PSW                        ;AT WHERE OLD DE ->
   04D4   97               SUB  A                          ;AND PUT A 0 THERE
   04D5   12               STAX D
   04D6   2A0108           LHLD CURRNT                     ;GET CURRENT LINE #
   04D9   E5               PUSH H
   04DA   7E               MOV  A,M                        ;CHECK THE VALUE
   04DB   23               INX  H
   04DC   B6               ORA  M
   04DD   D1               POP  D
   04DE   CABA00           JZ   RSTART                     ;IF ZERO, JUST RESTART
   04E1   7E               MOV  A,M                        ;IF NEGATIVE,
   04E2   B7               ORA  A
   04E3   FAC302           JM   INPERR                     ;REDO INPUT
   04E6   CDD505           CALL PRTLN                      ;ELSE PRINT THE LINE
   04E9   1B               DCX  D                          ;UPTO WHERE THE 0 IS
   04EA   F1               POP  PSW                        ;RESTORE THE CHARACTER
   04EB   12               STAX D
   04EC   3E3F             MVI  A,3FH                      ;PRINT A "?"
   04EE   D7               RST  2
   04EF   97               SUB  A                          ;AND THE REST OF THE
   04F0   CD6305           CALL PRTSTG                     ;LINE
   04F3   C3BA00           JMP  RSTART                     ;THEN RESTART
                   ;
1
 8080 MACRO ASSEMBLER, VER 3.0        ERRORS = 0
+                                                      13:28  11/10/2019
+                                                                                      PAGE 22


   04F6   D5       QSORRY: PUSH D                          ;*** QSORRY ***
   04F7   11B400   ASORRY: LXI  D,SORRY                    ;*** ASORRY ***
   04FA   C3CD04           JMP  ERROR
                   ;
                   ;*************************************************************
                   ;
                   ; *** GETLN *** FNDLN (& FRIENDS) ***
                   ;
                   ; 'GETLN' READS A INPUT LINE INTO 'BUFFER'.  IT FIRST PROMPT
                   ; THE CHARACTER IN A (GIVEN BY THE CALLER), THEN IT FILLS
                   ; THE BUFFER AND ECHOS.  IT IGNORES LF'S AND NULLS, BUT STILL
                   ; ECHOS THEM BACK.  RUB-OUT IS USED TO CAUSE IT TO DELETE
                   ; THE LAST CHARACTER (IF THERE IS ONE), AND ALT-MOD IS USED TO
                   ; CAUSE IT TO DELETE THE WHOLE LINE AND START IT ALL OVER.
                   ; CR SIGNALS THE END OF A LINE, AND CAUSE 'GETLN' TO RETURN.
                   ;
                   ; 'FNDLN' FINDS A LINE WITH A GIVEN LINE # (IN HL) IN THE
                   ; TEXT SAVE AREA.  DE IS USED AS THE TEXT POINTER.  IF THE
                   ; LINE IS FOUND, DE WILL POINT TO THE BEGINNING OF THAT LINE
                   ; (I.E., THE LOW BYTE OF THE LINE #), AND FLAGS ARE NC & Z.
                   ; IF THAT LINE IS NOT THERE AND A LINE WITH A HIGHER LINE #
                   ; IS FOUND, DE POINTS TO THERE AND FLAGS ARE NC & NZ.  IF
                   ; WE REACHED THE END OF TEXT SAVE AREA AND CANNOT FIND THE
                   ; LINE, FLAGS ARE C & NZ.
                   ; 'FNDLN' WILL INITIALIZE DE TO THE BEGINNING OF THE TEXT SAVE
                   ; AREA TO START THE SEARCH.  SOME OTHER ENTRIES OF THIS
                   ; ROUTINE WILL NOT INITIALIZE DE AND DO THE SEARCH.
                   ; 'FNDLNP' WILL START WITH DE AND SEARCH FOR THE LINE #.
                   ; 'FNDNXT' WILL BUMP DE BY 2, FIND A CR AND THEN START SEARCH.
                   ; 'FNDSKP' USE DE TO FIND A CR, AND THEN START SEARCH.
                   ;
   04FD   D7       GETLN:  RST  2                          ;*** GETLN ***
   04FE   11371F           LXI  D,BUFFER                   ;PROMPT AND INIT.
   0501   CD8706   GL1:    CALL CHKIO                      ;CHECK KEYBOARD
   0504   CA0105           JZ   GL1                        ;NO INPUT, WAIT
   0507   FE7F             CPI  7FH                        ;DELETE LAST CHARACTER?
   0509   CA2605           JZ   GL3                        ;YES
   050C   D7               RST  2                          ;INPUT, ECHO BACK
   050D   FE0A             CPI  0AH                        ;IGNORE LF
   050F   CA0105           JZ   GL1
   0512   B7               ORA  A                          ;IGNORE NULL
   0513   CA0105           JZ   GL1
   0516   FE7D             CPI  7DH                        ;DELETE THE WHOLE LINE?
   0518   CA3305           JZ   GL4                        ;YES
   051B   12               STAX D                          ;ELSE SAVE INPUT
   051C   13               INX  D                          ;AND BUMP POINTER
   051D   FE0D             CPI  0DH                        ;WAS IT CR?
   051F   C8               RZ                              ;YES, END OF LINE
   0520   7B               MOV  A,E                        ;ELSE MORE FREE ROOM?
   0521   FE77             CPI  BUFEND AND 0FFH
   0523   C20105           JNZ  GL1                        ;YES, GET NEXT INPUT
1
 8080 MACRO ASSEMBLER, VER 3.0        ERRORS = 0
+                                                      13:28  11/10/2019
+                                                                                      PAGE 23


   0526   7B       GL3:    MOV  A,E                        ;DELETE LAST CHARACTER
   0527   FE37             CPI  BUFFER AND 0FFH            ;BUT DO WE HAVE ANY?
   0529   CA3305           JZ   GL4                        ;NO, REDO WHOLE LINE
   052C   1B               DCX  D                          ;YES, BACKUP POINTER
   052D   3E5C             MVI  A,5CH                      ;AND ECHO A BACK-SLASH
   052F   D7               RST  2
   0530   C30105           JMP  GL1                        ;GO GET NEXT INPUT
   0533   CD0E00   GL4:    CALL CRLF                       ;REDO ENTIRE LINE
   0536   3E5E             MVI  A,05EH                     ;CR, LF AND UP-ARROW
   0538   C3FD04           JMP  GETLN
                   ;
   053B   7C       FNDLN:  MOV  A,H                        ;*** FNDLN ***
   053C   B7               ORA  A                          ;CHECK SIGN OF HL
   053D   FA9F00           JM   QHOW                       ;IT CANNOT BE -
   0540   111708           LXI  D,TXTBGN                   ;INIT TEXT POINTER
                   ;
   0543            FNDLP:                                  ;*** FDLNP ***
   0543   E5       FL1:    PUSH H                          ;SAVE LINE #
   0544   2A1508           LHLD TXTUNF                     ;CHECK IF WE PASSED END
   0547   2B               DCX  H
   0548   E7               RST  4
   0549   E1               POP  H                          ;GET LINE # BACK
   054A   D8               RC                              ;C,NZ PASSED END
   054B   1A               LDAX D                          ;WE DID NOT, GET BYTE 1
   054C   95               SUB  L                          ;IS THIS THE LINE?
   054D   47               MOV  B,A                        ;COMPARE LOW ORDER
   054E   13               INX  D
   054F   1A               LDAX D                          ;GET BYTE 2
   0550   9C               SBB  H                          ;COMPARE HIGH ORDER
   0551   DA5805           JC   FL2                        ;NO, NOT THERE YET
   0554   1B               DCX  D                          ;ELSE WE EITHER FOUND
   0555   B0               ORA  B                          ;IT, OR IT IS NOT THERE
   0556   C9               RET                             ;NC,Z:FOUND, NC,NZ:NO
                   ;
   0557            FNDNXT:                                 ;*** FNDNXT ***
   0557   13               INX  D                          ;FIND NEXT LINE
   0558   13       FL2:    INX  D                          ;JUST PASSED BYTE 1 & 2
                   ;
   0559   1A       FNDSKP: LDAX D                          ;*** FNDSKP ***
   055A   FE0D             CPI  CR                         ;TRY TO FIND CR
   055C   C25805           JNZ  FL2                        ;KEEP LOOKING
   055F   13               INX  D                          ;FOUND CR, SKIP OVER
   0560   C34305           JMP  FL1                        ;CHECK IF END OF TEXT
                   ;
                   ;*************************************************************
                   ;
                   ; *** PRTSTG *** QTSTG *** PRTNUM *** & PRTLN ***
                   ;
                   ; 'PRTSTG' PRINTS A STRING POINTED BY DE.  IT STOPS PRINTING
                   ; AND RETURNS TO CALLER WHEN EITHER A CR IS PRINTED OR WHEN
                   ; THE NEXT BYTE IS THE SAME AS WHAT WAS IN A (GIVEN BY THE
1
 8080 MACRO ASSEMBLER, VER 3.0        ERRORS = 0
+                                                      13:28  11/10/2019
+                                                                                      PAGE 24


                   ; CALLER).  OLD A IS STORED IN B, OLD B IS LOST.
                   ;
                   ; 'QTSTG' LOOKS FOR A BACK-ARROW, SINGLE QUOTE, OR DOUBLE
                   ; QUOTE.  IF NONE OF THESE, RETURN TO CALLER.  IF BACK-ARROW,
                   ; OUTPUT A CR WITHOUT A LF.  IF SINGLE OR DOUBLE QUOTE, PRINT
                   ; THE STRING IN THE QUOTE AND DEMANDS A MATCHING UNQUOTE.
                   ; AFTER THE PRINTING THE NEXT 3 BYTES OF THE CALLER IS SKIPPED
                   ; OVER (USUALLY A JUMP INSTRUCTION.
                   ;
                   ; 'PRTNUM' PRINTS THE NUMBER IN HL.  LEADING BLANKS ARE ADDED
                   ; IF NEEDED TO PAD THE NUMBER OF SPACES TO THE NUMBER IN C.
                   ; HOWEVER, IF THE NUMBER OF DIGITS IS LARGER THAN THE # IN
                   ; C, ALL DIGITS ARE PRINTED ANYWAY.  NEGATIVE SIGN IS ALSO
                   ; PRINTED AND COUNTED IN, POSITIVE SIGN IS NOT.
                   ;
                   ; 'PRTLN' PRINTS A SAVED TEXT LINE WITH LINE # AND ALL.
                   ;
   0563   47       PRTSTG: MOV  B,A                        ;*** PRTSTG ***
   0564   1A       PS1:    LDAX D                          ;GET A CHARACTER
   0565   13               INX  D                          ;BUMP POINTER
   0566   B8               CMP  B                          ;SAME AS OLD A?
   0567   C8               RZ                              ;YES, RETURN
   0568   D7               RST  2                          ;ELSE PRINT IT
   0569   FE0D             CPI  CR                         ;WAS IT A CR?
   056B   C26405           JNZ  PS1                        ;NO, NEXT
   056E   C9               RET                             ;YES, RETURN
                   ;
   056F   CF       QTSTG:  RST  1                          ;*** QTSTG ***
   0570   22               DB   '"'
   0571   0F               DB   QT3-$-1
   0572   3E22             MVI  A,22H                      ;IT IS A "
   0574   CD6305   QT1:    CALL PRTSTG                     ;PRINT UNTIL ANOTHER
   0577   FE0D             CPI  CR                         ;WAS LAST ONE A CR?
   0579   E1               POP  H                          ;RETURN ADDRESS
   057A   CA4701           JZ   RUNNXL                     ;WAS CR, RUN NEXT LINE
   057D   23       QT2:    INX  H                          ;SKIP 3 BYTES ON RETURN
   057E   23               INX  H
   057F   23               INX  H
   0580   E9               PCHL                            ;RETURN
   0581   CF       QT3:    RST  1                          ;IS IT A '?
   0582   27               DB   27H
   0583   05               DB   QT4-$-1
   0584   3E27             MVI  A,27H                      ;YES, DO THE SAME
   0586   C37405           JMP  QT1                        ;AS IN "
   0589   CF       QT4:    RST  1                          ;IS IT BACK-ARROW?
   058A   5F               DB   5FH
   058B   08               DB   QT5-$-1
   058C   3E8D             MVI  A,08DH                     ;YES, CR WITHOUT LF
   058E   D7               RST  2                          ;DO IT TWICE TO GIVE
   058F   D7               RST  2                          ;TTY ENOUGH TIME
   0590   E1               POP  H                          ;RETURN ADDRESS
1
 8080 MACRO ASSEMBLER, VER 3.0        ERRORS = 0
+                                                      13:28  11/10/2019
+                                                                                      PAGE 25


   0591   C37D05           JMP  QT2
   0594   C9       QT5:    RET                             ;NONE OF ABOVE
                   ;
   0595   0600     PRTNUM: MVI  B,0                        ;*** PRTNUM ***
   0597   CD8304           CALL CHKSGN                     ;CHECK SIGN
   059A   F2A005           JP   PN1                        ;NO SIGN
   059D   062D             MVI  B,'-'                      ;B=SIGN
   059F   0D               DCR  C                          ;'-' TAKES SPACE
   05A0   D5       PN1:    PUSH D                          ;SAVE
   05A1   110A00           LXI  D,0AH                      ;DECIMAL
   05A4   D5               PUSH D                          ;SAVE AS A FLAG
   05A5   0D               DCR  C                          ;C=SPACES
   05A6   C5               PUSH B                          ;SAVE SIGN & SPACE
   05A7   CD6604   PN2:    CALL DIVIDE                     ;DIVIDE HL BY 10
   05AA   78               MOV  A,B                        ;RESULT 0?
   05AB   B1               ORA  C
   05AC   CAB705           JZ   PN3                        ;YES, WE GOT ALL
   05AF   E3               XTHL                            ;NO, SAVE REMAINDER
   05B0   2D               DCR  L                          ;AND COUNT SPACE
   05B1   E5               PUSH H                          ;HL IS OLD BC
   05B2   60               MOV  H,B                        ;MOVE RESULT TO BC
   05B3   69               MOV  L,C
   05B4   C3A705           JMP  PN2                        ;AND DIVIDE BY 10
   05B7   C1       PN3:    POP  B                          ;WE GOT ALL DIGITS IN
   05B8   0D       PN4:    DCR  C                          ;THE STACK
   05B9   79               MOV  A,C                        ;LOOK AT SPACE COUNT
   05BA   B7               ORA  A
   05BB   FAC405           JM   PN5                        ;NO LEADING BLANKS
   05BE   3E20             MVI  A,20H                      ;LEADING BLANKS
   05C0   D7               RST  2
   05C1   C3B805           JMP  PN4                        ;MORE?
   05C4   78       PN5:    MOV  A,B                        ;PRINT SIGN
   05C5   B7               ORA  A
   05C6   C41000           CNZ  10H
   05C9   5D               MOV  E,L                        ;LAST REMAINDER IN E
   05CA   7B       PN6:    MOV  A,E                        ;CHECK DIGIT IN E
   05CB   FE0A             CPI  0AH                        ;10 IS FLAG FOR NO MORE
   05CD   D1               POP  D
   05CE   C8               RZ                              ;IF SO, RETURN
   05CF   C630             ADI  30H                        ;ELSE CONVERT TO ASCII
   05D1   D7               RST  2                          ;AND PRINT THE DIGIT
   05D2   C3CA05           JMP  PN6                        ;GO BACK FOR MORE
                   ;
   05D5   1A       PRTLN:  LDAX D                          ;*** PRTLN ***
   05D6   6F               MOV  L,A                        ;LOW ORDER LINE #
   05D7   13               INX  D
   05D8   1A               LDAX D                          ;HIGH ORDER
   05D9   67               MOV  H,A
   05DA   13               INX  D
   05DB   0E04             MVI  C,4H                       ;PRINT 4 DIGIT LINE #
   05DD   CD9505           CALL PRTNUM
1
 8080 MACRO ASSEMBLER, VER 3.0        ERRORS = 0
+                                                      13:28  11/10/2019
+                                                                                      PAGE 26


   05E0   3E20             MVI  A,20H                      ;FOLLOWED BY A BLANK
   05E2   D7               RST  2
   05E3   97               SUB  A                          ;AND THEN THE NEXT
   05E4   CD6305           CALL PRTSTG
   05E7   C9               RET
                   ;
                   ;*************************************************************
                   ;
                   ; *** MVUP *** MVDOWN *** POPA *** & PUSHA ***
                   ;
                   ; 'MVUP' MOVES A BLOCK UP FROM WHERE DE-> TO WHERE BC-> UNTIL
                   ; DE = HL
                   ;
                   ; 'MVDOWN' MOVES A BLOCK DOWN FROM WHERE DE-> TO WHERE HL->
                   ; UNTIL DE = BC
                   ;
                   ; 'POPA' RESTORES THE 'FOR' LOOP VARIABLE SAVE AREA FROM THE
                   ; STACK
                   ;
                   ; 'PUSHA' STACKS THE 'FOR' LOOP VARIABLE SAVE AREA INTO THE
                   ; STACK
                   ;
   05E8   E7       MVUP:   RST  4                          ;*** MVUP ***
   05E9   C8               RZ                              ;DE = HL, RETURN
   05EA   1A               LDAX D                          ;GET ONE BYTE
   05EB   02               STAX B                          ;MOVE IT
   05EC   13               INX  D                          ;INCREASE BOTH POINTERS
   05ED   03               INX  B
   05EE   C3E805           JMP  MVUP                       ;UNTIL DONE
                   ;
   05F1   78       MVDOWN: MOV  A,B                        ;*** MVDOWN ***
   05F2   92               SUB  D                          ;TEST IF DE = BC
   05F3   C2F905           JNZ  MD1                        ;NO, GO MOVE
   05F6   79               MOV  A,C                        ;MAYBE, OTHER BYTE?
   05F7   93               SUB  E
   05F8   C8               RZ                              ;YES, RETURN
   05F9   1B       MD1:    DCX  D                          ;ELSE MOVE A BYTE
   05FA   2B               DCX  H                          ;BUT FIRST DECREASE
   05FB   1A               LDAX D                          ;BOTH POINTERS AND
   05FC   77               MOV  M,A                        ;THEN DO IT
   05FD   C3F105           JMP  MVDOWN                     ;LOOP BACK
                   ;
   0600   C1       POPA:   POP  B                          ;BC = RETURN ADDR.
   0601   E1               POP  H                          ;RESTORE LOPVAR, BUT
   0602   220908           SHLD LOPVAR                     ;=0 MEANS NO MORE
   0605   7C               MOV  A,H
   0606   B5               ORA  L
   0607   CA1A06           JZ   PP1                        ;YEP, GO RETURN
   060A   E1               POP  H                          ;NOP, RESTORE OTHERS
   060B   220B08           SHLD LOPINC
   060E   E1               POP  H
1
 8080 MACRO ASSEMBLER, VER 3.0        ERRORS = 0
+                                                      13:28  11/10/2019
+                                                                                      PAGE 27


   060F   220D08           SHLD LOPLMT
   0612   E1               POP  H
   0613   220F08           SHLD LOPLN
   0616   E1               POP  H
   0617   221108           SHLD LOPPT
   061A   C5       PP1:    PUSH B                          ;BC = RETURN ADDR.
   061B   C9               RET
                   ;
   061C   21781F   PUSHA:  LXI  H,STKLMT                   ;*** PUSHA ***
   061F   CD8604           CALL CHGSGN
   0622   C1               POP  B                          ;BC=RETURN ADDRESS
   0623   39               DAD  SP                         ;IS STACK NEAR THE TOP?
   0624   D2F604           JNC  QSORRY                     ;YES, SORRY FOR THAT
   0627   2A0908           LHLD LOPVAR                     ;ELSE SAVE LOOP VAR'S
   062A   7C               MOV  A,H                        ;BUT IF LOPVAR IS 0
   062B   B5               ORA  L                          ;THAT WILL BE ALL
   062C   CA4206           JZ   PU1
   062F   2A1108           LHLD LOPPT                      ;ELSE, MORE TO SAVE
   0632   E5               PUSH H
   0633   2A0F08           LHLD LOPLN
   0636   E5               PUSH H
   0637   2A0D08           LHLD LOPLMT
   063A   E5               PUSH H
   063B   2A0B08           LHLD LOPINC
   063E   E5               PUSH H
   063F   2A0908           LHLD LOPVAR
   0642   E5       PU1:    PUSH H
   0643   C5               PUSH B                          ;BC = RETURN ADDR.
   0644   C9               RET
                   ;
                   ;*************************************************************
                   ;
                   ; *** OUTC *** & CHKIO ***
                   ;
                   ; THESE ARE THE ONLY I/O ROUTINES IN TBI.
                   ; 'OUTC' IS CONTROLLED BY A SOFTWARE SWITCH 'OCSW'.  IF OCSW=0
                   ; 'OUTC' WILL JUST RETURN TO THE CALLER.  IF OCSW IS NOT 0,
                   ; IT WILL OUTPUT THE BYTE IN A.  IF THAT IS A CR, A LF IS ALSO
                   ; SEND OUT.  ONLY THE FLAGS MAY BE CHANGED AT RETURN. ALL REG.
                   ; ARE RESTORED.
                   ;
                   ; 'CHKIO' CHECKS THE INPUT.  IF NO INPUT, IT WILL RETURN TO
                   ; THE CALLER WITH THE Z FLAG SET.  IF THERE IS INPUT, Z FLAG
                   ; IS CLEARED AND THE INPUT BYTE IS IN A.  HOWEVER, IF THE
                   ; INPUT IS A CONTROL-O, THE 'OCSW' SWITCH IS COMPLIMENTED, AND
                   ; Z FLAG IS RETURNED.  IF A CONTROL-C IS READ, 'CHKIO' WILL
                   ; RESTART TBI AND DO NOT RETURN TO THE CALLER.
                   ;
                   ;OUTC:  PUSH PSW                        ;THIS IS AT LOC. 10
                   ;       LDA  OCSW                       ;CHECK SOFTWARE SWITCH
                   ;       ORA  A
1
 8080 MACRO ASSEMBLER, VER 3.0        ERRORS = 0
+                                                      13:28  11/10/2019
+                                                                                      PAGE 28


   0645   320008   INIT:   STA  OCSW
   0648   3E03             MVI  A,3                        ;RESET ACIA
   064A   D310             OUT  16
   064C   3E15             MVI  A,15H                      ;15H FOR 8N1, 11H FOR 8N2
   064E   D310             OUT  16
   0650   1619             MVI  D,19H
   0652            PATLOP:
   0652   CD0E00           CALL CRLF
   0655   15               DCR  D
   0656   C25206           JNZ  PATLOP
   0659   97               SUB  A
   065A   11A606           LXI  D,MSG1
   065D   CD6305           CALL PRTSTG
   0660   210000           LXI  H,START
   0663   221308           SHLD RANPNT
   0666   211708           LXI  H,TXTBGN
   0669   221508           SHLD TXTUNF
   066C   C3BA00           JMP  RSTART
   066F   C27406   OC2:    JNZ  OC3                        ;IT IS ON
   0672   F1               POP  PSW                        ;IT IS OFF
   0673   C9               RET                             ;RESTORE AF AND RETURN
   0674   DB10     OC3:    IN   16                         ;COME HERE TO DO OUTPUT
   0676   E602             ANI  2H                         ;STATUS BIT
   0678   CA7406           JZ   OC3                        ;NOT READY, WAIT
   067B   F1               POP  PSW                        ;READY, GET OLD A BACK
   067C   D311             OUT  17                         ;AND SEND IT OUT
   067E   FE0D             CPI  CR                         ;WAS IT CR?
   0680   C0               RNZ                             ;NO, FINISHED
   0681   3E0A             MVI  A,LF                       ;YES, WE SEND LF TOO
   0683   D7               RST  2                          ;THIS IS RECURSIVE
   0684   3E0D             MVI  A,CR                       ;GET CR BACK IN A
   0686   C9               RET
                   ;
   0687   DB10     CHKIO:  IN   16                         ;*** CHKIO ***
   0689   00               NOP                             ;STATUS BIT FLIPPED?
   068A   E601             ANI  1H                         ;MASK STATUS BIT
   068C   C8               RZ                              ;NOT READY, RETURN "Z"
   068D   DB11             IN   17                         ;READY, READ DATA
   068F   E67F             ANI  7FH                        ;MASK BIT 7 OFF
   0691   FE0F             CPI  0FH                        ;IS IT CONTROL-O?
   0693   C2A006           JNZ  CI1                        ;NO, MORE CHECKING
   0696   3A0008           LDA  OCSW                       ;CONTROL-O FLIPS OCSW
   0699   2F               CMA                             ;ON TO OFF, OFF TO ON
   069A   320008           STA  OCSW
   069D   C38706           JMP  CHKIO                      ;GET ANOTHER INPUT
   06A0   FE03     CI1:    CPI  3H                         ;IS IT CONTROL-C?
   06A2   C0               RNZ                             ;NO, RETURN "NZ"
   06A3   C3BA00           JMP  RSTART                     ;YES, RESTART TBI
                   ;
   06A6   54494E59 MSG1:   DB   'TINY '
   06AA   20
1
 8080 MACRO ASSEMBLER, VER 3.0        ERRORS = 0
+                                                      13:28  11/10/2019
+                                                                                      PAGE 29


   06AB   42415349         DB   'BASIC'
   06AF   43
   06B0   0D               DB   CR
                   ;
                   ;*************************************************************
                   ;
                   ; *** TABLES *** DIRECT *** & EXEC ***
                   ;
                   ; THIS SECTION OF THE CODE TESTS A STRING AGAINST A TABLE.
                   ; WHEN A MATCH IS FOUND, CONTROL IS TRANSFERED TO THE SECTION
                   ; OF CODE ACCORDING TO THE TABLE.
                   ;
                   ; AT 'EXEC', DE SHOULD POINT TO THE STRING AND HL SHOULD POINT
                   ; TO THE TABLE-1.  AT 'DIRECT', DE SHOULD POINT TO THE STRING.
                   ; HL WILL BE SET UP TO POINT TO TAB1-1, WHICH IS THE TABLE OF
                   ; ALL DIRECT AND STATEMENT COMMANDS.
                   ;
                   ; A '.' IN THE STRING WILL TERMINATE THE TEST AND THE PARTIAL
                   ; MATCH WILL BE CONSIDERED AS A MATCH.  E.G., 'P.', 'PR.',
                   ; 'PRI.', 'PRIN.', OR 'PRINT' WILL ALL MATCH 'PRINT'.
                   ;
                   ; THE TABLE CONSISTS OF ANY NUMBER OF ITEMS.  EACH ITEM
                   ; IS A STRING OF CHARACTERS WITH BIT 7 SET TO 0 AND
                   ; A JUMP ADDRESS STORED HI-LOW WITH BIT 7 OF THE HIGH
                   ; BYTE SET TO 1.
                   ;
                   ; END OF TABLE IS AN ITEM WITH A JUMP ADDRESS ONLY.  IF THE
                   ; STRING DOES NOT MATCH ANY OF THE OTHER ITEMS, IT WILL
                   ; MATCH THIS NULL ITEM AS DEFAULT.
                   ;
   06B1            TAB1:                                   ;DIRECT COMMANDS
   06B1   4C495354         DB   'LIST'
                           DWA  LIST
   06B5 1 81      +        DB   (LIST SHR 8) + 128
   06B6 1 6F      +        DB   LIST AND 0FFH
   06B7   52554E           DB   'RUN'
                           DWA  RUN
   06BA 1 81      +        DB   (RUN SHR 8) + 128
   06BB 1 41      +        DB   RUN AND 0FFH
   06BC   4E4557           DB   'NEW'
                           DWA  NEW
   06BF 1 81      +        DB   (NEW SHR 8) + 128
   06C0 1 32      +        DB   NEW AND 0FFH
                   ;
   06C1            TAB2:                                   ;DIRECT/STATEMENT
   06C1   4E455854         DB   'NEXT'
                           DWA  NEXT
   06C5 1 82      +        DB   (NEXT SHR 8) + 128
   06C6 1 57      +        DB   NEXT AND 0FFH
   06C7   4C4554           DB   'LET'
                           DWA  LET
1
 8080 MACRO ASSEMBLER, VER 3.0        ERRORS = 0
+                                                      13:28  11/10/2019
+                                                                                      PAGE 30


   06CA 1 83      +        DB   (LET SHR 8) + 128
   06CB 1 23      +        DB   LET AND 0FFH
   06CC   4946             DB   'IF'
                           DWA  IFF
   06CE 1 82      +        DB   (IFF SHR 8) + 128
   06CF 1 B4      +        DB   IFF AND 0FFH
   06D0   474F544F         DB   'GOTO'
                           DWA  GOTO
   06D4 1 81      +        DB   (GOTO SHR 8) + 128
   06D5 1 60      +        DB   GOTO AND 0FFH
   06D6   474F5355         DB   'GOSUB'
   06DA   42
                           DWA  GOSUB
   06DB 1 81      +        DB   (GOSUB SHR 8) + 128
   06DC 1 BF      +        DB   GOSUB AND 0FFH
   06DD   52455455         DB   'RETURN'
   06E1   524E
                           DWA  RETURN
   06E3 1 81      +        DB   (RETUR SHR 8) + 128
   06E4 1 DF      +        DB   RETUR AND 0FFH
   06E5   52454D           DB   'REM'
                           DWA  REM
   06E8 1 82      +        DB   (REM SHR 8) + 128
   06E9 1 B0      +        DB   REM AND 0FFH
   06EA   464F52           DB   'FOR'
                           DWA  FOR
   06ED 1 81      +        DB   (FOR SHR 8) + 128
   06EE 1 F8      +        DB   FOR AND 0FFH
   06EF   494E5055         DB   'INPUT'
   06F3   54
                           DWA  INPUT
   06F4 1 82      +        DB   (INPUT SHR 8) + 128
   06F5 1 CD      +        DB   INPUT AND 0FFH
   06F6   5052494E         DB   'PRINT'
   06FA   54
                           DWA  PRINT
   06FB 1 81      +        DB   (PRINT SHR 8) + 128
   06FC 1 87      +        DB   PRINT AND 0FFH
   06FD   53544F50         DB   'STOP'
                           DWA  STOP
   0701 1 81      +        DB   (STOP SHR 8) + 128
   0702 1 3B      +        DB   STOP AND 0FFH
                           DWA  DEFLT
   0703 1 83      +        DB   (DEFLT SHR 8) + 128
   0704 1 1D      +        DB   DEFLT AND 0FFH
                   ;
   0705            TAB4:                                   ;FUNCTIONS
   0705   524E44           DB   'RND'
                           DWA  RND
   0708 1 84      +        DB   (RND SHR 8) + 128
   0709 1 25      +        DB   RND AND 0FFH
1
 8080 MACRO ASSEMBLER, VER 3.0        ERRORS = 0
+                                                      13:28  11/10/2019
+                                                                                      PAGE 31


   070A   414253           DB   'ABS'
                           DWA  ABS
   070D 1 84      +        DB   (ABS SHR 8) + 128
   070E 1 50      +        DB   ABS AND 0FFH
   070F   53495A45         DB   'SIZE'
                           DWA  SIZE
   0713 1 84      +        DB   (SIZE SHR 8) + 128
   0714 1 59      +        DB   SIZE AND 0FFH
                           DWA  XP40
   0715 1 84      +        DB   (XP40 SHR 8) + 128
   0716 1 0B      +        DB   XP40 AND 0FFH
                   ;
   0717            TAB5:                                   ;"TO" IN "FOR"
   0717   544F             DB   'TO'
                           DWA  FR1
   0719 1 82      +        DB   (FR1 SHR 8) + 128
   071A 1 08      +        DB   FR1 AND 0FFH
                           DWA  QWHAT
   071B 1 84      +        DB   (QWHAT SHR 8) + 128
   071C 1 C9      +        DB   QWHAT AND 0FFH
                   ;
   071D            TAB6:                                   ;"STEP" IN "FOR"
   071D   53544550         DB   'STEP'
                           DWA  FR2
   0721 1 82      +        DB   (FR2 SHR 8) + 128
   0722 1 12      +        DB   FR2 AND 0FFH
                           DWA  FR3
   0723 1 82      +        DB   (FR3 SHR 8) + 128
   0724 1 16      +        DB   FR3 AND 0FFH
                   ;
   0725            TAB8:                                   ;RELATION OPERATORS
   0725   3E3D             DB   '>='
                           DWA  XP11
   0727 1 83      +        DB   (XP11 SHR 8) + 128
   0728 1 33      +        DB   XP11 AND 0FFH
   0729   23               DB   '#'
                           DWA  XP12
   072A 1 83      +        DB   (XP12 SHR 8) + 128
   072B 1 39      +        DB   XP12 AND 0FFH
   072C   3E               DB   '>'
                           DWA  XP13
   072D 1 83      +        DB   (XP13 SHR 8) + 128
   072E 1 3F      +        DB   XP13 AND 0FFH
   072F   3D               DB   '='
                           DWA  XP15
   0730 1 83      +        DB   (XP15 SHR 8) + 128
   0731 1 4E      +        DB   XP15 AND 0FFH
   0732   3C3D             DB   '<='
                           DWA  XP14
   0734 1 83      +        DB   (XP14 SHR 8) + 128
   0735 1 46      +        DB   XP14 AND 0FFH
1
 8080 MACRO ASSEMBLER, VER 3.0        ERRORS = 0
+                                                      13:28  11/10/2019
+                                                                                      PAGE 32


   0736   3C               DB   '<'
                           DWA  XP16
   0737 1 83      +        DB   (XP16 SHR 8) + 128
   0738 1 54      +        DB   XP16 AND 0FFH
                           DWA  XP17
   0739 1 83      +        DB   (XP17 SHR 8) + 128
   073A 1 5A      +        DB   XP17 AND 0FFH
                   ;
   073B   21B006   DIRECT: LXI  H,TAB1-1                   ;*** DIRECT ***
                   ;
   073E            EXEC:                                   ;*** EXEC ***
   073E   EF       EX0:    RST  5                          ;IGNORE LEADING BLANKS
   073F   D5               PUSH D                          ;SAVE POINTER
   0740   1A       EX1:    LDAX D                          ;IF FOUND '.' IN STRING
   0741   13               INX  D                          ;BEFORE ANY MISMATCH
   0742   FE2E             CPI  2EH                        ;WE DECLARE A MATCH
   0744   CA5D07           JZ   EX3
   0747   23               INX  H                          ;HL->TABLE
   0748   BE               CMP  M                          ;IF MATCH, TEST NEXT
   0749   CA4007           JZ   EX1
   074C   3E7F             MVI  A,07FH                     ;ELSE SEE IF BIT 7
   074E   1B               DCX  D                          ;OF TABLE IS SET, WHICH
   074F   BE               CMP  M                          ;IS THE JUMP ADDR. (HI)
   0750   DA6407           JC   EX5                        ;C:YES, MATCHED
   0753   23       EX2:    INX  H                          ;NC:NO, FIND JUMP ADDR.
   0754   BE               CMP  M
   0755   D25307           JNC  EX2
   0758   23               INX  H                          ;BUMP TO NEXT TAB. ITEM
   0759   D1               POP  D                          ;RESTORE STRING POINTER
   075A   C33E07           JMP  EX0                        ;TEST AGAINST NEXT ITEM
   075D   3E7F     EX3:    MVI  A,07FH                     ;PARTIAL MATCH, FIND
   075F   23       EX4:    INX  H                          ;JUMP ADDR., WHICH IS
   0760   BE               CMP  M                          ;FLAGGED BY BIT 7
   0761   D25F07           JNC  EX4
   0764   7E       EX5:    MOV  A,M                        ;LOAD HL WITH THE JUMP
   0765   23               INX  H                          ;ADDRESS FROM THE TABLE
   0766   6E               MOV  L,M
   0767   E67F             ANI  7FH                        ;MASK OFF BIT 7
   0769   67               MOV  H,A
   076A   F1               POP  PSW                        ;CLEAN UP THE GABAGE
   076B   E9               PCHL                            ;AND WE GO DO IT
                   ;
   076C            LSTROM:                                 ;ALL ABOVE CAN BE ROM
                   ;       ORG  1000H                      ;HERE DOWN MUST BE RAM
   0800                    ORG  0800H
   0800            OCSW:   DS   1                          ;SWITCH FOR OUTPUT
   0801            CURRNT: DS   2                          ;POINTS TO CURRENT LINE
   0803            STKGOS: DS   2                          ;SAVES SP IN 'GOSUB'
   0805            VARNXT: DS   2                          ;TEMP STORAGE
   0807            STKINP: DS   2                          ;SAVES SP IN 'INPUT'
   0809            LOPVAR: DS   2                          ;'FOR' LOOP SAVE AREA
1
 8080 MACRO ASSEMBLER, VER 3.0        ERRORS = 0
+                                                      13:28  11/10/2019
+                                                                                      PAGE 33


   080B            LOPINC: DS   2                          ;INCREMENT
   080D            LOPLMT: DS   2                          ;LIMIT
   080F            LOPLN:  DS   2                          ;LINE NUMBER
   0811            LOPPT:  DS   2                          ;TEXT POINTER
   0813            RANPNT: DS   2                          ;RANDOM NUMBER POINTER
   0815            TXTUNF: DS   2                          ;->UNFILLED TEXT AREA
   0817            TXTBGN: DS   2                          ;TEXT SAVE AREA BEGINS
                   ;       ORG  1366H
   1F00                    ORG  1F00H
   1F00            TXTEND: DS   0                          ;TEXT SAVE AREA ENDS
   1F00            VARBGN: DS   55                         ;VARIABLE @(0)
   1F37            BUFFER: DS   64                         ;INPUT BUFFER
   1F77            BUFEND: DS   1                          ;BUFFER ENDS
   1F78            STKLMT: DS   1                          ;TOP LIMIT FOR STACK
                   ;       ORG  1400H
   2000                    ORG  2000H
   2000            STACK:  DS   0                          ;STACK STARTS HERE
                   ;
   000D            CR      EQU  0DH
   000A            LF      EQU  0AH

                           END
 NO PROGRAM ERRORS
1
 8080 MACRO ASSEMBLER, VER 3.0        ERRORS = 0
+                                                      13:28  11/10/2019
+                                                                                      PAGE 34


                        SYMBOL TABLE

  * 01

  A      0007      ABS    0450      AHOW   00A0      ASORR  04F7
  AWHAT  04CA      B      0000      BUFEN  1F77      BUFFE  1F37
  C      0001      CHGSG  0486      CHKIO  0687      CHKSG  0483
  CI1    06A0      CK1    04A1      CKHLD  049B      CR     000D
  CRLF   000E      CURRN  0801      D      0002      DEFLT  031D
  DIREC  073B      DIVID  0466      DV1    0471      DV2    0473
  DWA    06CB      E      0003      ENDCH  04C5      ERROR  04CD
  EX0    073E      EX1    0740      EX2    0753      EX3    075D
  EX4    075F      EX5    0764      EXEC   073E      EXPR1  032D
  EXPR2  0371      EXPR3  03A5      EXPR4  0405      FI1    04BD
  FI2    04C4      FIN    04B6      FL1    0543      FL2    0558
  FNDLN  053B      FNDLP  0543      FNDNX  0557      FNDSK  0559
  FOR    01F8      FR1    0208      FR2    0212      FR3    0216
  FR4    0219      FR5    021C *    FR7    0231      FR8    0252
  GETLN  04FD      GL1    0501      GL3    0526      GL4    0533
  GOSUB  01BF      GOTO   0160      H      0004      HOW    00A6
  IFF    02B4      INIT   0645      INPER  02C3      INPUT  02CD
  IP1    02CD      IP2    02DB      IP3    02EB      IP4    0315
  IP5    031C      L      0005      LET    0323      LF     000A
  LIST   016F      LOPIN  080B      LOPLM  080D      LOPLN  080F
  LOPPT  0811      LOPVA  0809      LS1    0178      LSTRO  076C
  LT1    032C      M      0006      MD1    05F9      MSG1   06A6
  MVDOW  05F1      MVUP   05E8      NEW    0132      NEXT   0257
  NX0    025E      NX1    0298      NX2    02AC      NX3    0276
  NX4    0288      NX5    02AA      OC2    066F      OC3    0674
  OCSW   0800      OK     00AB      PARN   041A      PATLO  0652
  PN1    05A0      PN2    05A7      PN3    05B7      PN4    05B8
  PN5    05C4      PN6    05CA      POPA   0600      PP1    061A
  PR0    019B      PR1    01A3      PR2    0192      PR3    01A9
  PR6    01B2      PR8    01B6      PRINT  0187      PRTLN  05D5
  PRTNU  0595      PRTST  0563      PS1    0564      PSW    0006
  PU1    0642      PUSHA  061C      QHOW   009F      QSORR  04F6
  QT1    0574      QT2    057D      QT3    0581      QT4    0589
  QT5    0594      QTSTG  056F      QWHAT  04C9      RA1    0440
  RANPN  0813      REM    02B0      RETUR  01DF      RND    0425
  RSTAR  00BA      RUN    0141      RUNNX  0147      RUNSM  0157
  RUNTS  0150      SETVA  04A3      SIZE   0459      SORRY  00B4
  SP     0006      SS1    0028      ST1    00BD *    ST2    00CD
  ST3    00D6      ST4    010B      STACK  2000      START  0000
  STKGO  0803      STKIN  0807      STKLM  1F78      STOP   013B
  SUBDE  047C      SV1    04B3      TAB1   06B1      TAB2   06C1
  TAB4   0705      TAB5   0717      TAB6   071D      TAB8   0725
  TC1    0068      TC2    0073      TN1    007C      TSTNU  0077
  TV1    0058      TXTBG  0817      TXTEN  1F00      TXTUN  0815
  VARBG  1F00      VARNX  0805      WHAT   00AE      XP11   0333
  XP12   0339      XP13   033F      XP14   0346      XP15   034E
  XP16   0354      XP17   035A      XP18   035C      XP21   037A
1
 8080 MACRO ASSEMBLER, VER 3.0        ERRORS = 0
+                                                      13:28  11/10/2019
+                                                                                      PAGE 35
                              SYMBOL TABLE


  XP22   037D      XP23   0380      XP24   0387      XP25   0398
  XP26   039B      XP31   03A8      XP32   03C5      XP33   03CD
  XP34   03D8      XP35   03F7      XP40   040B      XP41   0414
  XP42   0421      XP43   0422

  * 02


  * 03


  * 04


  * 05


  * 06


  * 07


  * 08


  * 09


  * 10


  * 11


  * 12


  * 13


  * 14


  * 15


  * 16


  * 17


1
 8080 MACRO ASSEMBLER, VER 3.0        ERRORS = 0
+                                                      13:28  11/10/2019
+                                                                                      PAGE 36
                              SYMBOL TABLE


  * 18


  * 19


  * 20


  * 21


  * 22


  * 23


  * 24


  * 25


  * 26


  * 27


  * 28


  * 29


  * 30


  * 31


